:020000040800F2
:100000003009002045010008454D0008E541000881
:10001000C54900086510000855540008000000009C
:10002000000000000000000000000000FD4E00087D
:100030002917000800000000694E0008014F000861
:100040005F0100085F0100085F0100085F01000810
:100050005F0100085F0100085F0100085F01000800
:100060005F0100085F0100085F0100085F010008F0
:100070005F0100085F0100085F0100085F010008E0
:10008000111700081D1700085F0100085F01000834
:100090005F0100085F0100085F0100085F010008C0
:1000A0005F0100085F0100085F0100085F010008B0
:1000B0005F0100085F0100085F0100085F010008A0
:1000C0005F0100085F0100085F0100085F01000890
:1000D0005F010008FD530008095400085F01000893
:1000E0005F0100085F0100085F0100085F01000870
:1000F0005F0100085F0100085F0100085F01000860
:100100005F0100085F0100085F0100085F0100084F
:100110005F0100085F0100085F010008094F000847
:100120005F0100085F0100085F0100085F0100082F
:10013000DFF80CD000F0BEFD00480047595400081D
:10014000300900200648804706480047FEE7FEE7E2
:10015000FEE7FEE7FEE7FEE7FEE7FEE7FEE7FEE777
:10016000054F0008310100080FB400B58DB010A98B
:1001700009900B9000914FF0FF300A9000200C90F6
:1001800005480690054807906A4609A80F9900F0AF
:10019000C3FC0DB05DF814FB350B0008530B0008D1
:1001A0002DE9FF4F087883B09946FF2805D0491CF8
:1001B0002D2804D00024002008E000200BE00124BA
:1001C000F9E700EB800003EB4000491C0B78FF2BA4
:1001D000F7D104B1404200230293147819461D461A
:1001E0002D2C01D02B2C04D1521C2D2C13D00024EB
:1001F0000294AA461478FF2C0FD00A25A3FB057899
:1002000001FB05814FF0000C03FB0C11521CE3199C
:100210004AEB0101EEE70124EAE7814453EA0100D9
:1002200002D019F5C87F06DA03980021C0E9001151
:1002300007B0BDE8F08F0025AE4E2F46DFF8B8823C
:10024000184600F02BFDCDE90001B9F1000002DAFB
:10025000C9F1000400E004460023A74A1AEB030B8F
:1002600042EB045A12E0E00707D02A4633463846EC
:10027000414600F0B4FA074688462A4633461046FF
:10028000194600F0ACFA05460E466410002CEAD17F
:10029000DDE90001B9F1000F5A46534606DA00F0D5
:1002A00010FB3A46434600F00CFB05E000F097FADD
:1002B0003A46434600F093FA029A0AB181F00041AF
:1002C000039AC2E90001B3E72DE9FF4F1F468DB045
:1002D000D7E901464FF0FF382E2045464FF0000980
:1002E0000B90B9696D1C0E988847396A8246884719
:1002F0000028F6D1BAF1FF3F0AD024F4D064002ED2
:1003000011DDBAF12B0F08D0BAF12D0F0BD102E09D
:10031000404611B08DE744F48064B9696D1C0E98B5
:1003200088478246761E6946600501D52D2000E08B
:100330002B208DF8000001F1010B0DF1200809E0E0
:10034000B9696D1C0E98884782460F9844F4007472
:10035000761E0560002E02DDBAF1300FF0D00B9949
:100360008A453ED144F0800406E00F99681CA9F14B
:10037000010944F400740860B9696D1C761E0E987A
:10038000884782463028F0D02BE00B998A4505D16A
:10039000200603D444F08004761E18E0504605F091
:1003A000B5F808B30DF11302761EAAF1300044F43B
:1003B0000074934506D20BF8010B200607D5A9F16E
:1003C000010003E0200602D409F101008146A005E6
:1003D00002D50F99681C0860B9696D1C0E98884792
:1003E0008246002ED1DC53E0002E51DDBAF1650FBC
:1003F00002D0BAF1450F4BD1A00549D5B9696D1CA2
:1004000024F44074761E0E9888478246002E0CDD38
:100410002B2804D0BAF12D0F07D144F48074B969A8
:100420006D1C0E9888478246761EE00501D52D2169
:1004300000E02B2108F8011BCDF82C8021E00DF104
:100440002901761E44F4007488450CD2AAF13000CC
:1004500010F0FF0088F8000002D10B99884509D9F7
:1004600008F1010806E0E00501D5244801E042F268
:100470000F708146B9696D1C0E98884782460F98A7
:100480000560002E04DD504605F040F80028D6D166
:10049000F9690E988847FF208BF8000088F8000063
:1004A0000020069007904B466A4608A906A8FFF769
:1004B00077FEA00502D46FF001002AE714F0240FA4
:1004C0000AD0E00714D1DDE906123868031D3B604D
:1004D0000068C0E900120BE0DDE9060100F0D8FA7F
:1004E0000146E00704D13868021D3A6000680160E7
:1004F00028460EE7000014400000F03FF1D8FFFF4F
:10050000F0B480EA0102D40F4200B2EB410F02D2F4
:100510000246084611464A0042D0C30DDDB2C1F37F
:10052000C752AD1A202D35DAC1F3160141F400028D
:1005300004B15242C5F1200602FA06F12A411044E4
:10054000B3EBD05F23D0C4B1012DA0EBC35009DCC5
:10055000F0BC4FF0004202EAC352DBB200F50000EB
:1005600000F011BB400000F1807000EBC350A0F11F
:10057000807040EAD170490009E0490841EAC07141
:10058000A0EBC35000F50000400800EBC350F0BCE6
:1005900000F0F0BA6142012202EB4101001BF6E7D4
:1005A000F0BC704781F00041AAE780F00040A7E767
:1005B00080EA010210B502F00043400022D04A0058
:1005C0001FD0010E01EB1261C0F35600C2F35602B8
:1005D00040F4000042F40002A0FB022000047F3936
:1005E000140400D0401C50EA124001D44000491EBF
:1005F000C2B20C0604EBD010401C4008802A02D086
:1006000003E0002010BD20F00100002900DA0020E6
:10061000184310BD30B480EA010202F0004530F00A
:10062000004221F0004013D090B1C30DD40DC2F3AD
:100630001601C0F31600E41A41F4000140F4000270
:100640007D34914201D3641C00E04900002C02DAA1
:1006500030BC002070474FF400000023914201D3CA
:10066000891A034340084FEA4101F7D151B1914241
:1006700002D14FF0004105E002D24FF0010101E04C
:100680006FF0010103EBC450284430BC00F072BA93
:100690002DE9FE4F804681EA0300C00F0C46009012
:1006A00021F0004123F00045B8EB0200A94105D23A
:1006B0004046214690461C460B46024623F0004029
:1006C000104347D0270DC7F30A00C3F30A51029025
:1006D000401A019040286BDAC3F3130040F4801BEA
:1006E0000098924620B10023D2EB030A63EB0B0B78
:1006F00001985946C0F14002504600F0E5F906461F
:100700000D4650465946019A00F0EDF910EB0800ED
:100710006141002487EA115284EAE7731A4340D00A
:10072000009A62B3019A012A4FEA075215DC001BB6
:1007300061EB02014FF0004202EA0752CDE90042AC
:10074000001C41F5801132462B4600F059FA03B0E7
:10075000BDE8F08F40462146F9E7001B61EB02013E
:10076000001C41F5801300185B412018A2F500170A
:1007700047EB030140EAD570B6196D4111E06D08F1
:100780004FEA360645EAC0754FEA0752001B61EB97
:100790000201001C41F5801149084FEA30000019A0
:1007A000514132462B4603B0BDE8F04F00F019BA74
:1007B0000098012240000023D0EB020263EBE073BB
:1007C000009821464FEAE074B8EB000061EB0401A9
:1007D000E9E783F000435BE781F0004158E72DE94A
:1007E000FE4F81EA030404F0004421F0004100942C
:1007F0004FF0000B23F0004350EA01045ED052EAB0
:1008000003045BD0C3F30A54C1F30A552C44A4F289
:10081000F3340194A0FB0254C1F3130141F480119D
:10082000C3F3130343F4801301FB024400FB034EA4
:10083000840A970A44EA815447EA8357A4FB07686D
:1008400002958D0A05FB07854FEA932C04FB0C5497
:100850002705029D4FEA065847EA1637B5EB08050B
:100860006EEB070C870E920E47EA811742EA83125D
:10087000A7FB0201B6EB0B0164EB00042B0D43EA6E
:100880000C335E1844EB1C50DA465146E7FB02017C
:10089000C5F313044FEA0B3343EA14534FEA04320F
:1008A000019C43EA0603A4F10C040294009CCDE9E8
:1008B00000B400F0A5F903B0BDE8F08F00200146B8
:1008C000F9E72DE9F04D81EA030404F0004B21F033
:1008D000004514464FF0000A23F0004150EA05029B
:1008E00020D054EA01021DD0C5F30A570246C5F3D1
:1008F0001303C1F31300C1F30A5640F4801543F407
:100900008013A7EB0608101BD64608F2FD3873EBE0
:10091000050002D308F1010801E092185B41B8F12B
:10092000000F03DA00200146BDE8F08D00204FF4EF
:100930008011064684460EE0171B73EB050705D3AE
:10094000121B63EB050306434CEA010C49084FEA0E
:10095000300092185B4150EA0107EDD152EA0300E2
:1009600012D082EA040083EA0501084305D0101B77
:10097000AB4106D20122002306E000224FF00043E3
:1009800002E06FF0010253101AEB06004CEB085125
:1009900010EB0A0041EB0B01BDE8F04D00F021B96E
:1009A000002801DBC0F10040002901DBC1F100415A
:1009B000814201D80120704700207047002801DBE8
:1009C000C0F10040002901DBC1F10041814201D3A7
:1009D0000120704700207047002801DBC0F1004073
:1009E000002901DBC1F10041814201D9012070479A
:1009F00000207047C10F80EAE0700844CA079623C0
:100A0000002100F0C0B896230022114600F0BBB8C8
:100A100000F0004220F00040C10DC0F3160040F489
:100A200000007F2901DA00207047962903DCC1F11C
:100A30009601C84001E096398840002AF4D040422F
:100A4000704720F00040C10DC0F3160040F40000D4
:100A50007F2901DA00207047962903DCC1F1960155
:100A6000C840704796398840704700F0004230F027
:100A700000400AD0C10D01F56071C0F3160042EAD2
:100A80000151C208400711437047002001467047DA
:100A900001F0004330B421F0004150EA010206D0D9
:100AA0000A0DA2F56072C1F31301002A02DC30BC0A
:100AB00000207047440F44EAC104C100E01830BC74
:100AC00000EBC25000F056B8202A04DB203A00FAAE
:100AD00002F1002070479140C2F1200320FA03F395
:100AE000194390407047202A06DBCB17203A41FA81
:100AF00002F043EAE07306E041FA02F3D040C2F1AB
:100B000020029140084319467047000002681144D2
:100B10001378016018467047D16004495161044957
:100B2000116200211161114600F0F2B80D0B0008AE
:100B3000050D0008426842B1016811F8013B23B17C
:100B4000521EC0E90012184670470121C160881E7C
:100B5000704742685AB1C368016843B983688B42E1
:100B600005D0491E521CC0E90012002070474FF00A
:100B7000FF3070470029A8BF7047401C490008BFDC
:100B800020F00100704710B4B0FA80FC00FA0CF0BD
:100B900050EA010404BF10BC704749B1CCF12004F5
:100BA00021FA04F411FA0CF118BF01212143084382
:100BB000A3EB0C01CB1D4FEA00614FEA102042BFAE
:100BC000002010BC704700EBC35010440029A4BFA4
:100BD00010BC7047401C490008BF20F0010010BC49
:100BE000704710B5141E73F1000408DA401C41F17F
:100BF000000192185B411A4301D120F0010010BDA1
:100C00002DE9F04D92469B4611B1B1FA81F202E016
:100C1000B0FA80F220329046FFF756FF04460F46A6
:100C200040EA0A0041EA0B0153465A46084313D0F2
:100C3000114653EA010019D0C8F14002504600F0B5
:100C400051F805460E46504659464246FFF73CFFCE
:100C5000084305D0012004E020463946BDE8F08D68
:100C60000020054346EAE0762C4337430A986305A3
:100C7000E40AA0EB08000022FD0A44EA47540A30C7
:100C800002D500200146E9E7010510196941DDE9B7
:100C9000084500196941BDE8F04DA2E70EB540F2E4
:100CA000334202920022CDE900221346FFF7A8FF4B
:100CB00003B000BD1CB509480090094801900546E5
:100CC000009C06E0E06840F0010394E807009847C4
:100CD0001034AC42F6D3FFF72FFA00005456000848
:100CE00074560008202A04DB203A21FA02F0002181
:100CF000704721FA02F3D040C2F12002914008432C
:100D000019467047C0B24FF4F05100F097B9000097
:100D10002DE9F34F8BB04FF0000801F10C000C46A9
:100D20004FF0010B46460DF1080A0190626901215E
:100D300001989047051E2DD0252D2CD0216A88477B
:100D4000C0B16269012101989047216A8847002853
:100D5000F7D1411E62690198904700E0761CA169B5
:100D60000B988847216A88470028F7D1E1690B98DA
:100D70008847DBE7A1690B9888470746A84201D15D
:100D8000761CD3E7E1690B9888477F1C02D1B8F144
:100D9000000F6FD046E1002762693D463946019851
:100DA00090472A2804D162690121019890470125C2
:100DB000DFF884926269012101989047A0F1300127
:100DC0000A290AD24F45E5DC07EB870100EB410712
:100DD000303FDFD445F01005ECE7E90601D46FF0B1
:100DE00000476C280AD04C2814D0682815D06A28EF
:100DF0000DD074281CD07A281AD01DE06269012118
:100E0000019890476C2802D045F0040514E045F0A5
:100E100002050DE045F020050AE062690121019814
:100E20009047682802D045F0080505E045F40065C4
:100E30006269012101989047C4E9015765283DD0B6
:100E400019DC58287AD00CDC452837D004DC25285A
:100E500026D0412831D131E046282FD047282CD147
:100E60002CE05B2877D0612828D063287CD06428C8
:100E700023D15AE0D0E06F2848D008DC66281DD086
:100E800067281BD0692821D06E2816D127E070284A
:100E900045D0732868D0752847D078280DD14DE00B
:100EA000A1690B988847054625283FF469AFE16999
:100EB0000B9888476D1C3FF46AAFB3E023466A463F
:100EC0006FF001000B99FFF7FFF99EE045F040003D
:100ED0006060A80723464FF0000236D43EE0E807E2
:100EE0007FF447AF2068011D21600068290501D506
:100EF00006701BE7290701D5068017E7A90703D568
:100F0000F117C0E9006111E706600FE745F0400006
:100F10006060A80723464FF0080216D41EE040F692
:100F20000E0125EA0100606016E045F040006060B7
:100F3000A80723464FF00A0207D40FE045F040000F
:100F40006060A80708D5234610226FF001000B99B6
:100F5000AFF3008059E007E0234610226FF0010054
:100F60000B99AFF3008050E04FF000094F464B461D
:100F7000632802D05B2806D040E0E80601D40120B7
:100F8000A06001273AE062690121019890475E283C
:100F900005D14FF0010962694946019890472169DE
:100FA00039B900210A46534643F82120491C082933
:100FB000FADBB0B3216969B9C11700EBD1625311F3
:100FC0000AEB830122F01F02821A01200B68904075
:100FD00003430B6062690121019890475D28E8D1C5
:100FE000B9F1000F09D00020514651F82020D2431A
:100FF00041F82020401C0828F7DB02AB224600976E
:101000006FF001000B99AFF3008000280CDA401C50
:1010100008D1BBF1000F05D04FF0FF300DB0BDE897
:10102000F08FFFE74046F9E7E90701D108F1010831
:1010300006444FF0000B79E6CCCCCC0C7F2801D9CC
:10104000002208E0064A02EB5002C007127800D1E5
:10105000120902F00F020120904008407047000082
:101060001A550008FEE70000032888BF704770B5D6
:10107000044640F2C8300D46C2F200002C2104FBA9
:10108000010640F27840C2F2000004FB010029464C
:10109000756203F0E5FE0021366AC4F27A41284603
:1010A000FFF786FA3146FFF7B5FAFFF7B1FC0546C0
:1010B00030460021FFF790FC002808BF0546204677
:1010C000294600F009F840F22800C2F20000012190
:1010D0000170BDE870407047B0B5032888BFB0BD4F
:1010E0000C4600290B4640F2C831C2F200014FF015
:1010F0002C0200FB021248BF6342B3F57A7F88BF1F
:1011000000245368082B0DD0042B17D093BB234623
:10111000002C48BF63421268126853632C22012CD2
:1011200032DA15E02346002C48BF63421268126889
:10113000D3632C22012C27DA0AE000BF2346002CBF
:1011400048BF63421268126893632C22012C1BDA99
:1011500000FB02150022A868A98900F09FFE2869FB
:10116000A98AB4F1FF3F1DDD0022BDE8B04000F0C8
:1011700095BE00BF2346002C48BF63421268126828
:1011800013642C22012CE3DB00FB02140122A06873
:10119000A18900F083FE2069A18A0022BDE8B04049
:1011A00000F07CBE0122BDE8B04000F077BE000038
:1011B0002DE9F04F81B045F28450C0F6000090E870
:1011C0001E50D0E9066740F2C835C2F2000585E836
:1011D0001E50C5E9066700F12C07D0E90E64002116
:1011E0008CCFD0E910CE05F1280900F1580B89E821
:1011F0008E00C5E90E649BE8DC0EC5E910CE05F152
:10120000580CD0F848808CE8DC0E00F18407D0E957
:101210002464D0E926CED0F8A000C5E91281C5E942
:10122000280140F2A82005F18008C2F20000C5E9BB
:101230000811C5E91411C5E91E118CCF88E88E008C
:10124000C5E92464C5E926CEC5E92A1101F0FAFAF8
:10125000002818BF00F06AFAD5E9000101F09EFFEE
:10126000002818BF00F062FAA8693C2101F024FDB3
:10127000002818BF00F05AFAAA69D5E90B011268D4
:101280000023536201F08AFF002818BF00F04EFAD5
:10129000686C3C2101F010FD002818BF00F046FAF0
:1012A0006A6CD5E9160112680023536201F076FFDB
:1012B000002818BF00F03AFA286F3C2101F0FCFC2E
:1012C000002818BF00F032FA2A6FD5E92101126810
:1012D0000023536201F062FF002818BF00F026FAD5
:1012E000D5F89C003C2101F0E7FC002818BF00F075
:1012F0001DFAD5F89C1000220968A8684A62A989DD
:10130000012200F0CBFD2869A98A002200F0C6FD69
:101310006868082808D004280AD0002828680068CF
:1013200014BF4030343006E0286800683C3002E0EA
:1013300028680068383040F2E731016040F2DC5044
:1013400000F09EFCAC6A296A2046FFF729FB0028C2
:1013500008BF2C62A868A989002200F09FFD2869B7
:10136000A98A002200F09AFD6868082808D004289D
:101370000AD000282868006814BF4030343006E0E6
:10138000286800683C3002E0286800683830002196
:101390000160686B298F012200F080FDE86BB5F8D1
:1013A0004010002200F07AFD286B48B104280BD0D1
:1013B0000828E86A006814BF40303C3007E000BFEE
:1013C000E86A0068343002E0E86A0068383040F2C9
:1013D000E731016040F2DC5000F052FC6C6DE96CCA
:1013E0002046FFF7DDFA002808BFEC64686B298F00
:1013F000002200F053FDE86BB5F84010002200F029
:101400004DFD286B40B104280AD00828E86A00681E
:1014100014BF40303C3006E0E86A0068343002E037
:10142000E86A0068383000210160286EB5F8641061
:10143000012200F033FDA86EB5F86C10002200F018
:101440002DFDE86D40B104280AD00828A86D006879
:1014500014BF40303C3006E0A86D0068343002E034
:10146000A86D0068383040F2E731016040F2DC508E
:1014700000F006FCD5F88040A96F2046FFF790FAEF
:10148000002808BFAC67286EB5F86410002200F091
:1014900005FDA86EB5F86C10002200F0FFFCE86DA9
:1014A00040B104280AD00828A86D006814BF403055
:1014B0003C3006E0A86D0068343002E0A86D00689A
:1014C000383000210160D5F88C00B5F89010012269
:1014D00000F0E4FCD5F89400B5F89810002200F074
:1014E000DDFCD5F8880048B104280DD00828D5F8CF
:1014F0008400006814BF40303C3009E0D5F8840017
:101500000068343004E000BFD5F88400006838304B
:1015100040F2E731016040F2DC5000F0B1FBD5F859
:10152000AC40D5F8A4102046FFF73AFA002808BFCF
:10153000C5F8A440D5F88C00B5F89010002200F052
:10154000ADFCD5F89400B5F89810002200F0A6FC88
:10155000D5F8880070B1042816D00828D5F8840082
:10156000006814BF40303C300021016001B0BDE88C
:10157000F08F00BFD5F8840000683430002101608E
:1015800001B0BDE8F08F00BFD5F8840000683830A6
:101590000021016001B0BDE8F08F000070B540F29D
:1015A000C835C2F200056968044608290CD0042930
:1015B00012D028680029006814BF40303430002160
:1015C000012C01600FD918E0286800683C30002128
:1015D000012C016007D910E028680068383000212C
:1015E000012C016009D8A868A989224600F056FCA0
:1015F0002869A98A224600F051FC286B60B10428B2
:1016000012D00828E86A006814BF40303C3000213E
:10161000012C01600FD919E0E86A0068343000211C
:10162000012C016007D911E0E86A00683830002118
:10163000012C01600AD8686B298F224600F02EFC2D
:10164000E86BB5F84010224600F028FCE86D68B160
:10165000042813D00828A86D006814BF40303C301F
:101660000021012C016010D91BE000BFA86D0068AB
:1016700034300021012C016007D912E0A86D006808
:1016800038300021012C01600BD8286EB5F86410A9
:10169000224600F003FCA86EB5F86C10224600F05C
:1016A000FDFBD5F8880068B1042815D00828D5F8C6
:1016B0008400006814BF40303C300026012C0660D6
:1016C00012D91FE0D5F88400006834300026012CC0
:1016D000066009D916E000BFD5F8840000683830EC
:1016E0000026012C06600DD8D5F88C00B5F89010B6
:1016F000224600F0D3FBD5F89400B5F898102246A6
:1017000000F0CCFB40F22800C2F20000067070BD71
:1017100040F2B800C2F2000000F0CAB840F2FC008B
:10172000C2F2000000F0C4B870470000EFF3108070
:1017300072B600BFFEE70000014690F821000228C3
:1017400016D10868D1E90FC3026822F00E020260C8
:10175000026822F001020260012000FA03F2CCF8D4
:10176000042081F821000020002281F82020704709
:10177000042088630120002281F8202070470000A7
:1017800090F82110022927D1026840F2040C136856
:10179000C4F2020C23F00E03136013680CF17C01F9
:1017A0008A4223F0010111601AD940F20841C4F2C3
:1017B00002018A4248D040F21C41C4F202018A422E
:1017C00046D040F23041C4F202018A4244D14FF483
:1017D0008073CCF800345CE0042181630120704701
:1017E0004321C4F202018A420EDD6B21C4F20201E0
:1017F0008A421BDC4421C4F202018A423CD05821B7
:10180000C4F202018A4233E00821C4F202018A4292
:1018100036D01C21C4F202018A4237D03021C4F2F2
:1018200002018A4224D14FF4807230E06C21C4F26C
:1018300002018A4226D08021C4F202018A4217D1D5
:101840004FF0807223E000BF0123CCF8003420E089
:101850001023CCF800341CE00CF588614FF4803381
:101860008A4208BF4FF48053CCF8003411E000BF27
:101870004FF480320BE000BF4FF4805207E000BF0E
:10188000012204E04FF4801201E000BF1022CCF8E6
:101890000020012180F82110426B002180F82010E7
:1018A00022B180B590470021BDE8804008467047CE
:1018B00010B5D0E90FE3D0F800C0DEF80020DCF866
:1018C0000010DA4054072DD511F004042AD0DCF8BA
:1018D0000010890605D4DCF8001021F00401CCF8D2
:1018E00000100422C4F2020202F17C018C454BD9A3
:1018F00040F20841C4F202018C4500F0AF8040F292
:101900001C41C4F202018C4500F0AC8040F2304131
:10191000C4F202018C4540F0A9804FF48061C2F806
:101920000014F3E0940745D511F0020442D0DCF82E
:101930000010890608D4DCF8001021F00A01CCF868
:101940000010012180F821100422C4F2020202F1E9
:101950007C018C454CD940F20841C4F202018C450F
:1019600000F0B48040F21C41C4F202018C4500F04A
:10197000AF8040F23041C4F202018C4540F0AA80B1
:101980004FF40071AEE000BF4321C4F202018C4568
:1019900044DD6B21C4F202018C4551DC4421C4F2C8
:1019A00002018C4500F0A2805821C4F202018C454E
:1019B00068E000BF120740F1C18011F0080108BFC4
:1019C00010BDDCF8001021F00E01CCF80010012150
:1019D00001FA03F2CEF80420816380F82110016B34
:1019E0000022002980F8202040F09280A6E000BF6D
:1019F0004321C4F202018C4548DD6B21C4F202018F
:101A00008C4555DC4421C4F202018C4500F08480F1
:101A10005821C4F202018C4572E000BF0821C4F2D3
:101A200002018C4566D01C21C4F202018C456BD0AA
:101A30003021C4F202018C4524D14FF4806164E06E
:101A40006C21C4F202018C4556D08021C4F20201FF
:101A50008C4517D14FF0806157E000BF0421C2F8D8
:101A6000001453E04021C2F800144FE002F58863EF
:101A70004FF480219C4508BF4FF48041C2F8001408
:101A800044E000BF4FF480213FE000BF0821C4F2D2
:101A900002018C4544D01C21C4F202018C4545D082
:101AA0003021C4F202018C452AD14FF400713EE08E
:101AB0006C21C4F202018C4534D08021C4F20201B1
:101AC0008C451DD14FF0007131E000BF022109E0CB
:101AD000202107E002F588634FF400319C4508BFE0
:101AE0004FF40051C2F8001422E000BF4FF48041CF
:101AF0000BE000BF042108E04FF4800105E000BFC7
:101B00004FF4003113E000BF40211160C16AA9B158
:101B1000BDE81040084700BF4FF4005107E000BF88
:101B2000022104E04FF4001101E000BF2021116008
:101B3000816A0022002980F82020E9D110BD000030
:101B4000014600284FF0010008BF70472DE9F0471B
:101B500040F2000CC4F2020C0A684FF6F8330CF5A0
:101B6000816ECBF6FD73724538BF03F5806303EBDE
:101B7000020E4CF6CD43CCF6CC43AEFB033E6FF0E9
:101B800003060CF5806506EA9E06D1E901A9D1F8A5
:101B90000C803CBF0025C4F20205C1E90F560226A5
:101BA00081F82160166843F6F075AE4346EA0A06EE
:101BB000D1E9045746EA090646EA0806D1E9064390
:101BC0002E43374327433B43136000228A6381F847
:101BD000210081F820200020BDE8F0477047000078
:101BE00090F820C0BCF1010F04BF02207047F0B58F
:101BF0004FF0010E80F820E090F821C0BCF1010FF9
:101C000026D14FF0020C80F821C04FF0000CC0F834
:101C100038C0D0E900C4C56AC66BDCF80070102C6F
:101C200027F00107CCF80070006C0EFA00F070602D
:101C30000846CCF8043004BF10460A46CCF8080029
:101C4000CCF80C20DCF8000045B140F00E000DE0AF
:101C5000002180F820100220F0BD00BF20F0040019
:101C6000CCF80000DCF8000040F00A00CCF80000DE
:101C7000DCF8000040F00100CCF800000020F0BDCE
:101C8000B0B5044600F010F9054640F20000C2F27B
:101C900000000078611C18BF044400BF00F004F984
:101CA000401BA042FAD3B0BD2DE9F04F82B00E68C0
:101CB000002E00F0EF80A0F18042A2F5843287056B
:101CC00047EA922241F6004740F2004EC4F2010773
:101CD0000625C4F2010EB84208BF052500244FF0C6
:101CE00001080F234FF0000A4FF0000B052A38BF00
:101CF0001546009509E000BF0E680AF1010A36FAA0
:101D00000AF204F1040400F0C58008FA0AFC16EA9D
:101D10000C09F1D04E684FF6FF72C1F210029642E4
:101D200012DC122E56D8DFE806F0350B4549555522
:101D300055555555555555555555554D510000BF9F
:101D4000D1F80CB046E000BF4FF6FF72C1F221029D
:101D500096420FDC0022C1F2110296421AD00022F4
:101D6000C1F21202964215D00022C1F2210296421F
:101D700010D02FE00022C1F2220296420AD00022A7
:101D8000C1F23102964205D00022C1F232029642DF
:101D900020D100BF8A684AB1012A14BFC0F814C01C
:101DA000C0F810C04FF0080B14E000BF4FF0040B58
:101DB00010E000BFCA6802F1080B0BE04FF0000B07
:101DC00008E000BFCA6802F1040B03E0CA6802F130
:101DD0000C0B00BF22460646B9F5807F24BF203A8F
:101DE0000436376803FA02F5AF430BFA02F23A43BE
:101DF0003260CA79D2067FF57FAF41F21807C4F28C
:101E000002073A684FF6084342F001023A603A6826
:101E1000CFF6FF7302F001020192019A2AF0030249
:101E200072440F25D75804F00C06B540AF43009D0F
:101E300005FA06F63743D7504E6840F20C45F202D9
:101E4000DEF8082054BF22EA090242EA0902C4F27D
:101E50000105CEF808202A68B70254BF22EA090219
:101E600042EA09022A60DEF80420B70354BF22EADE
:101E7000090242EA0902CEF804200F23DEF800200E
:101E8000F70354BF22EA090242EA0902CEF8002011
:101E900032E700BF02B0BDE8F08F0000002A08BFA3
:101EA000090401617047000040F22850C2F20000AE
:101EB0000068704740F2000040F22851C2F2000072
:101EC000C2F2000100780A68104408607047000000
:101ED00080B542F20000C4F20200016841F0100136
:101EE0000160032000F08CF8002000F005F800F0FD
:101EF00027F8002080BD000070B540F20006C2F255
:101F0000000640F208013278C2F200014FF47A7301
:101F10000968B3FBF2F20446B1FBF2F1084600F0A7
:101F200089FB0F2C4FF0010508D838B94FF0FF306E
:101F300021460022002500F037F87460284670BD65
:101F400082B041F21800C4F202000168022241F09E
:101F500001010160016801F00101019101994168ED
:101F600041F080514160406800F08050009000983E
:101F70000420C4F20100016862F31A61016002B03A
:101F800070470000002848BF704700F01F01012281
:101F900002FA01F11C2202EAD0004EF20012CEF247
:101FA000000281507047000010B54EF60C5CCEF276
:101FB000000CDCF80030C3F3022E8EF00704042C72
:101FC00028BF0424BEF103034FF0FF3E0EFA04F4D1
:101FD00038BF0023A14399400EFA03F39A431143FB
:101FE00000F00F0200F160430901043A03F5644375
:101FF0006244002848BF02F10C03197010BD0000B4
:102000004EF60C51CEF200010A684FF6FF031A405B
:1020100060F30A2242F0806040F0FD700860704773
:10202000002804BF012070472DE9F04381B042F23F
:102030000008C4F202080446D8F800000D4600F07B
:10204000070088420CD2D8F8000020F0070028438F
:10205000C8F80000D8F8000000F00700A8426CD1D2
:10206000206841F204098107C4F2020917D541072B
:1020700005D5D9F8001041F4E061C9F80010010756
:1020800005D5D9F8001041F46051C9F80010D9F80D
:102090000010A26821F0F0011143C9F80010C00738
:1020A00042D1D8F8000000F00700A8420CD9D8F8B7
:1020B000000020F007002843C8F80000D8F800000E
:1020C00000F00700A84238D12068410707D5D9F8A9
:1020D0000010E26821F4E0611143C9F80010000724
:1020E00008D5D9F80000216920F4605040EAC10009
:1020F000C9F80000D9F8002002F00C00082841F2CD
:102100000020C0F27A0051D145F27453C2F38341EA
:10211000C0F60003595CD2033CD440F60010C0F274
:102120003D00484342E000BF606802280AD0012811
:102130002AD159F8041C890308D4012001B0BDE854
:10214000F08300BF59F8041C8901F6D5D9F80010B6
:1021500021F003010843C9F80000FFF7A5FE064679
:1021600041F28837D9F80000616800F00C00B0EB4C
:10217000810F96D0FFF798FE801BB842F2D903205A
:1021800001B0BDE8F08300BF59F8041C8907D4D51D
:10219000DCE700BFD9F8002045F27253C2F3404299
:1021A000C0F600039A5C4843B0FBF2F0D9F8001087
:1021B00045F25A52C1F30311C0F60002515C40F2DD
:1021C000080220FA01F140F20400C2F200000068A7
:1021D000C2F200021160FFF78FFE002001B0BDE8DF
:1021E000F083000040F2080041F20401C2F2000056
:1021F000C4F202010068096845F26A52C1F3022183
:10220000C0F60002515CC8407047000040F2080070
:1022100041F20401C2F20000C4F202010068096840
:1022200045F26A52C1F3C221C0F60002515CC840B7
:1022300070470000002804BF012070472DE9F041DD
:1022400082B00446007841F20006C007C4F20206DC
:102250000CD0706800F00C00042840F081803068D9
:10226000800303D56068002800F04E812078800745
:102270001BD5706810F00C0F09D0706800F00C00CE
:10228000082840F08B807068C00300F187803068B8
:10229000800703D52069012840F0368130686169E4
:1022A00020F0F80040EAC10030602078000713D425
:1022B000207840072CD4E569002D00F0208170685B
:1022C00000F00C00082840F0AF80012D40F00C8198
:1022D000012002B0BDE8F081A069002800F08C80E8
:1022E0000020C4F242200121C0F88014FFF7DCFD79
:1022F000054600BF706A800700F1BA80FFF7D4FD81
:10230000401B0228F6D9032002B0BDE8F08100BFCF
:10231000F0695FEAC00808D4F06940F08050F061CD
:10232000F06900F080500090009847F20007C4F276
:1023300000073868C0054DD4386840F480703860B4
:10234000FFF7B2FD054600BF3868C00542D4FFF76D
:10235000ABFD401B6428F7D9032002B0BDE8F08133
:10236000706800F00C00082803D17068C0033FF5C6
:1023700076AF6068002800F00981B0F5A02F00F06A
:102380001D81B0F5803F00F01D81306820F4803061
:102390003060306820F4802017E100BF20690028F9
:1023A00040F20000C4F2422000F08C800121016064
:1023B000FFF77AFD054600BF306880073FF56EAF36
:1023C000FFF772FD401B0228F6D9032002B0BDE8DA
:1023D000F08100BFE068002800F09A80052800F036
:1023E000B180012800F0B280306A20F00100306234
:1023F000306A20F00400ACE00020C4F2422000214A
:10240000C0F88014FFF750FD054600BF706A8007D2
:102410007FF54EAFFFF748FD401B0228F6D9032099
:1024200002B0BDE8F08100BF0027C4F242270020BF
:102430003866FFF739FD022D05460DD13068800161
:1024400040F1D680FFF730FD401B02284FF003001B
:10245000F4D902B0BDE8F081306880014FD5FFF7B4
:1024600023FD401B02284FF00300F5D9F1E700BF20
:1024700040F20800C2F20000006844F6D351C1F2F5
:102480006201A0FB0101480A019000BF00BF019852
:10249000411E002801913FF40BAF00BF0198411E7F
:1024A000002801913FF404AF00BF0198411E0028AD
:1024B00001913FF4FDAE00BF0198411E002801913B
:1024C000E4D1F5E600210160FFF7EEFC054600BF10
:1024D000306880077FF5E9AEFFF7E6FC401B022875
:1024E0004FF00300F4D9B4E77068216A00F4803239
:1024F0008A4209D1616A00F47010884204D1002038
:1025000002B0BDE8F08100BF012002B0BDE8F0815B
:10251000306A20F001003062306A20F0040030623E
:10252000FFF7C2FC054641F2883700BF306A8007DA
:1025300022D5FFF7B9FC401BB8424FF00300F5D994
:1025400087E700BF306A40F004003062306A40F034
:1025500001003062FFF7A8FC054641F2883700BF52
:10256000306A800708D4FFF79FFC401BB842F7D9B8
:10257000032002B0BDE8F081B8F1000F3FF59BAE3B
:10258000F06920F08050F06195E600BF306820F4DB
:1025900080303060306820F480203060FFF784FCA9
:1025A000054600BF306880037FF560AEFFF77CFC16
:1025B000401B64284FF00300F4D94AE7306840F428
:1025C00080203060306840F480303060FFF76CFC71
:1025D000054600BF306880033FF548AEFFF764FC56
:1025E000401B6428F6D9032002B0BDE8F08100BF8B
:1025F000206AB0F5803F05D17168A26821F40031EE
:10260000114371607168626A21F4741111430843C7
:10261000706001203866FFF747FC0446306880018F
:102620003FF56DAFFFF740FC001B02284FF00300A1
:10263000F4D90EE7411E0020B0EB116F1CBF012042
:1026400070474EF21002CEF2000251604EF6235156
:10265000CEF20001F0230B700721906011607047EB
:10266000704700007047000090F83C20012A04BF2A
:1026700002207047B0B501F108053CCDD1E900CE8C
:1026800023F47C5322F470521A432EF4F0431A437D
:102690002CF4E0431A4324F4C0431A432A43C96983
:1026A00022F48042036811435964002180F83C10F1
:1026B000BDE8B0400846704790F83C20012A4FF032
:1026C000020242D010B580F83D200268D2F804E042
:1026D000D2F808C00C682EF07003234340F6FF3494
:1026E000C4F20004A242536010DCB2F1804F1FD04C
:1026F00040F20043C4F200039A4219D040F60003AE
:10270000C4F200039A4213D017E000BF40F6004322
:10271000C4F200039A420BD043F20043C4F2010317
:102720009A4205D042F60043C4F201039A4204D112
:1027300049682CF08003194391600121002280F840
:102740003D1080F83C20BDE8104010467047000066
:10275000002804BF0120704710B5044690F83D00E2
:1027600028B9002084F83C00204600F01FF8022021
:1027700084F83D002068211D02F0CCFB012084F884
:10278000460084F83E0084F83F0084F8400084F856
:10279000410084F8420084F8430084F8440084F83F
:1027A000450084F83D00002010BD000080B584B0D5
:1027B000006841F20041C4F2000188421AD043F29D
:1027C0000041C4F2010188422CD042F60041C4F21B
:1027D0000101884233D141F21800C4F202000168BD
:1027E00041F400610160006800F400600390039808
:1027F00004B080BD41F21800C4F20200416800221A
:1028000041F0200141604068022100F02000029068
:1028100002983720FFF7C8FB372004B0BDE880409E
:10282000FFF7B0BB41F21800C4F20200016841F4A6
:1028300000510160006800F400500190019804B05C
:1028400080BD000090F83D1001291CBF0120704799
:10285000022180F83D10006840F6FF32C168C4F2E2
:102860000002904241F00101C1600FDCB0F1804FE5
:102870001ED040F20041C4F20001884218D040F658
:102880000001C4F20001884212D018E040F6004175
:10289000C4F2000188420BD043F20041C4F20101AE
:1028A000884205D042F60041C4F20101884206D1B7
:1028B000816801F00701062904BF00207047016804
:1028C00041F00101016000207047000090F83C20B9
:1028D000012A4FF0020200F0C58080B580F83D204B
:1028E000D0F800C04FF67772DCF8083023EA020215
:1028F000CCF808200B684F2B28DC1F2B44DD202B45
:1029000045D0302B43D0402B40F0AE80D1F804E0CE
:10291000C968DCF82030DCF8202022F00102CCF875
:102920002020DCF8182022F0F00242EA011123F006
:102930000A0242EA0E02CCF81810CCF82020DCF88B
:10294000081041F0470121F0300180E06F2B27DDB6
:10295000B3F5005F48D0B3F5805F7AD0702B40F0BC
:102960008380D1E901E3C968DCF8082043EA0E035B
:1029700022F47F4243EA01211143CCF80810DCF82D
:10298000081041F0770162E00BB1102B6CD1DCF83C
:10299000081021F07001194341F0070157E000BF12
:1029A000502B35D0602B5FD1D1F804E0C968DCF83A
:1029B0002030DCF8202022F01002CCF82020DCF8B7
:1029C000182022F4704242EA013123F0A00242EAC8
:1029D0000E12CCF81810CCF82020DCF8081041F0CA
:1029E000670121F0100132E0D1E901E3C968DCF8A8
:1029F000082043EA0E0322F47F4243EA01211143F7
:102A0000CCF80810DCF8081041F480411FE000BF4A
:102A1000D1F804E0C968DCF82030DCF8202022F08E
:102A20000102CCF82020DCF8182022F0F00242EA63
:102A3000011123F00A0242EA0E02CCF81810CCF879
:102A40002020DCF8081041F0570121F02001CCF8DB
:102A500008100022012180F83D10002180F83C1070
:102A6000BDE88040104670470122F3E7002804BF0C
:102A7000012070472DE9F047044690F83D000D46CF
:102A800028B9002084F83C00204600F049F80220D4
:102A900084F83D00206844F2070281689143816018
:102AA000211D02F037FA20684FF6FF7881688269AD
:102AB000D0F820C0D5E9003ED5E9026A43EA010911
:102AC000AB6922EA080246EA03234FF6FC46B34309
:102AD000D5E9076742EA0A0229691A4342EA06224F
:102AE00042EA01112CF022026B6942EA0E0241EA2D
:102AF000073142EA0312C0F80890816102620120A6
:102B000084F8460084F83E0084F83F0084F84200D0
:102B100084F8430084F83D000020BDE8F087000001
:102B200070B586B0006800F14041800540EA912010
:102B3000002103280591CDE90311029100F2BA802A
:102B4000DFE800F0024A629641F21800C4F2020087
:102B5000416840F6000441F0010141604168C4F25F
:102B6000010401F0010101910199016802AD41F0F8
:102B7000040101600168002601F00401019101993E
:102B8000016841F0080101600068294600F0080072
:102B9000019001984FF4004002902046CDE9036671
:102BA000FFF782F80820CDE9020604F58060294687
:102BB0000496FFF779F80420C4F2010001684FF68B
:102BC000FF42CFF6FF02114041F0E06141F4807115
:102BD000016006B070BD00BF41F21800C4F20200EF
:102BE000416841F002014160416801F00201019138
:102BF0000199016841F004010160006800F00400DF
:102C000001900198C0204AE041F21800C4F202008D
:102C1000416841F004014160416801F00401019103
:102C20000199016841F020010160006802A900F0EB
:102C30002000019001984FF4405002900020CDE90F
:102C4000030040F60000C4F2010000F54060FFF709
:102C50002BF80420C4F2010040F200120168C0F217
:102C6000007202F570621143016006B070BD00BFD2
:102C700041F21800C4F20200416841F008014160CD
:102C8000416801F0080101910199016841F00401D6
:102C90000160006800F00400019001980320029098
:102CA00000200390049040F60000C4F2010002A945
:102CB000FEF7FAFF06B070BD80B590F83E2090F8A0
:102CC0003F3090F842E090F843C004290AD0B9B9E7
:102CD000012A4FF0010208BFBEF1010F34D01046A7
:102CE00080BD00BF012B4FF0010208BFBCF1010FF6
:102CF000F5D1022180F83F1080F8431000681EE0F3
:102D0000012A4FF0010208BF012BE8D1BEF1010FEB
:102D1000E5D1BCF1010FE2D1022280F83E2080F81B
:102D20003F2080F8422080F8432091B10068016A7A
:102D300021F001010162016A41F0010101621021EB
:102D40006FF0100209E000BF022180F83E1080F809
:102D50004210006801216FF00102036A1A4002620A
:102D6000026A114301620168002241F00101016021
:102D7000104680BD7047000070B504460068C56805
:102D80000669B10716D515F0020113D06FF00201E4
:102D90000161012121778069800703D02046FFF778
:102DA000E9FF05E0204600F08FF8204600F0F4F936
:102DB00000202077700719D515F0040016D0206880
:102DC0006FF00401016102212177806910F4407FD6
:102DD00004D02046FFF7CEFF06E000BF204600F0FB
:102DE00073F8204600F0D8F900202077300717D577
:102DF00015F0080014D020686FF00801016104216B
:102E00002177C069800703D02046FFF7B3FF05E0B4
:102E1000204600F059F8204600F0BEF90020207747
:102E2000F00619D515F0100016D020686FF01001CB
:102E3000016108212177C06910F4407F04D0204649
:102E4000FFF798FF06E000BF204600F03DF820465F
:102E500000F0A2F900202077F00718BF15F001005C
:102E600002D1300609D412E020686FF0010101613F
:102E7000204600F003FA300609D515F0800006D090
:102E800020686FF0800101612046FFF7E9FB7006C2
:102E900009D515F0400006D020686FF040010161AF
:102EA000204600F055FBB00658BF70BD15F020005D
:102EB00008D021686FF0200220460A61BDE870400A
:102EC000FFF7D0BB70BD00007047000090F83C30A9
:102ED000012B04BF022070474FEAB202032A00F21E
:102EE00025812DE9F041DFE802F0034B95DF00BFBB
:102EF000036843F200461D6A1A6A25F0020522F0B3
:102F000001021A621A46D3F804C052F8188F8F686B
:102F1000D1F800E0C4F20106B34245EA070505D046
:102F200042F60047C4F20107BB4205D1CF6825F045
:102F30000C0527F004073D43B34205D042F6004696
:102F4000C4F20106B34206D1D1E905672CF44074FE
:102F5000264346EA070C28F0730444EA0E07C3F838
:102F600004C09F614F6809695F631D629F6947F0F4
:102F700008079F619F6927F004079F61CAE000BFAF
:102F8000036843F200461D6A1A6A25F0200522F004
:102F900010021A621A46D3F804C052F8188F8F68CC
:102FA000D1F800E0C4F20106B34245EA071505D0A6
:102FB00042F60047C4F20107BB4207D1CF686FF069
:102FC000400425F0C00504EA07142543B34205D0A8
:102FD00042F60044C4F20104A34206D1D1E90546F9
:102FE0002CF44067264347EA860C28F4E64444EA7A
:102FF0000E27C3F804C09F614F6809699F631D6273
:103000009F6947F400679F619F6927F480679F610C
:103010007FE000BF036843F200461D6A1A6A25F488
:10302000007522F480721A621A46D3F804C052F86E
:103030001CEF8F68D1F80080C4F20106B34245EA64
:10304000072505D042F60047C4F20107BB4208D16C
:10305000CF6840F2FF443F0225F4406527EA0404AC
:103060002543B34205D042F60044C4F20104A34212
:1030700006D1D1E905462CF44057264347EA061C01
:103080002EF0730747EA0807C3F804C0DF614F68F2
:103090000969DF631D62DF6947F00807DF61DF69E7
:1030A00027F00407DF6135E0036843F20047D3F8F7
:1030B00020C01A6AC4F2010722F480521A621A462A
:1030C0005C6852F81C5FD1F800E08E68BB4205D006
:1030D00042F60047C4F20107BB4204D14F6924F411
:1030E000804444EA87142CF4005747EA063725F455
:1030F000E64646EA0E265C60DE614E6809691E649B
:103100001F62DF6947F40067DF61DF6927F48067CA
:10311000DF6109021368194311600021BDE8F04125
:10312000002280F83C200846704700BF01210022A1
:1031300080F83C2008467047002804BF01207047F3
:1031400010B5044690F83D0028B9002084F83C00F2
:10315000204600F01FF8022084F83D002068211D61
:1031600001F0D8FE012084F8460084F83E0084F87F
:103170003F0084F8400084F8410084F8420084F85D
:10318000430084F8440084F8450084F83D000020A2
:1031900010BD0000704700007047000041B10829D1
:1031A00010D0042914BF00F1410200F13F020BE0EE
:1031B00090F83E20012A1CBF01207047022280F8AF
:1031C0003E2013E000F140021278012A1CBF0120CA
:1031D00070470222082907D0042914BF80F8412033
:1031E00080F83F2002E000BF80F84020006801F036
:1031F0001F010122036A02FA01F123EA01020262BD
:10320000026A114340F6FF32C4F2000290420162AA
:103210000EDCB0F1804F25D040F20041C4F2000135
:1032200088421FD040F60001C4F2000118E000BF40
:1032300040F60041C4F20001884213D043F200423C
:10324000C4F2010242F600419042C4F2010101D0F1
:1032500088420CD1436C904243F40043436401D054
:10326000884204D1816801F00701062903D0016872
:1032700041F00101016000207047000040F2A821E8
:10328000C2F20001884218BF70472DE9F04F81B0AB
:1032900040F22808C2F20008B8F8020040F2C8372D
:1032A000013081B20A29C2F20007A8F8020009D24F
:1032B00098F80000012800F0AC8001B0BDE8F04FA4
:1032C00001F0EABBB8694FF000090668A8F802905F
:1032D0003C6A706A40F6B83B80B241F2707A584559
:1032E00088BFAAEB0000FDF785FB0021C4F2702126
:1032F000FDF75EF9B98B05460846FDF784FB0146EC
:103300002846FDF787F921460546B862C6F824909D
:10331000FDF746FB002808BF3D62786CFC6C066830
:10332000706A80B2584588BFAAEB0000FDF762FBC7
:103330000021C4F27021FDF73BF9B7F848100546AB
:103340000846FDF760FB01462846FDF763F9214674
:1033500005467865C6F82490FDF722FB002808BFD3
:10336000FD64386FBC6F066840F6B83A706A41F287
:10337000707980B2504588BFA9EB0000FDF73AFB99
:103380000021C4F27021FDF713F9B7F87410054657
:103390000846FDF738FB01462846FDF73BF94FF09C
:1033A000000B21460546C7F88000C6F824B0FDF79B
:1033B000F7FA002808BFBD67D7F89C00D7F8A440EB
:1033C0000668706A80B2504588BFA9EB0000FDF71F
:1033D00011FB0021C4F27021FDF7EAF8B7F8A01044
:1033E00005460846FDF70FFB01462846FDF712F992
:1033F00021460546C7F8AC00C6F824B0FDF7D0FA60
:10340000002808BFC7F8A45098F8000001287FF4EE
:1034100054AF40F27844B96AC2F20004204601F089
:1034200093FC7968082909D004290DD091B9FDF7DA
:1034300008FB39680968486311E000BFFDF701FB2C
:1034400039680968C8630AE0FDF7FBFA396809685A
:10345000886304E0FDF7F5FA396809680864796D56
:1034600004F12C0001F070FC396B49B104290DD036
:10347000082911D1FDF7E5FAF96A0968C86310E077
:10348000FDF7DFFAF96A096848630AE0FDF7D9FA3F
:10349000F96A0968886304E0FDF7D3FAF96A0968F4
:1034A0000864D7F8801004F1580001F04DFCF96D64
:1034B00051B104290ED0082912D1FDF7C2FAB96D15
:1034C0000968C86311E000BFFDF7BBFAB96D096870
:1034D00048630AE0FDF7B5FAB96D0968886304E04E
:1034E000FDF7AFFAB96D09680864D7F8AC1004F1BC
:1034F000840001F029FCD7F8881059B1042911D0B3
:10350000082917D1FDF79DFAD7F884100968C86318
:1035100016E000BFFDF795FAD7F8841009684863F4
:103520000EE000BFFDF78DFAD7F8841009688863B4
:1035300006E000BFFDF785FAD7F884100968086433
:10354000022088F8000001B0BDE8F04F01F0A4BAF5
:103550007047000090F84230202B07D100294FF02F
:10356000010318BF002A05D11846704702231846E8
:10357000704700BF81B0012303630023436381626E
:1035800022218285C285436480F842100269016865
:103590001AB1CA6842F48072CA604A6942F00102F4
:1035A0004A61CA6842F02002CA60026B012A31D126
:1035B000002200920A68009249680091009900BFB9
:1035C000016851E8031F026841F0100142E803134B
:1035D000DBB1016851E8031F026841F0100142E8C5
:1035E000031393B1016851E8031F026841F0100111
:1035F00042E803134BB1016851E8031F026841F030
:10360000100142E80313002BDAD1002301B0184661
:10361000704700BF012301B01846704740F23831AF
:10362000C2F20001884218BF7047B0B588B003AA43
:1036300040F22C0502F1080002F10C01C2F2000573
:10364000CDE9000105F1100445F23461131D02F1CA
:10365000100CC0F600012046CDF808C0FCF784FD30
:1036600003AB0FCB0FC540F23830C2F20000214649
:103670005022FFF76FFF08B0BDE8B0407047000070
:1036800010B504460068416994F84120212A56D1BA
:1036900011F0800153D000BF206850E8050F216869
:1036A00020F0800041E80502DAB1206850E8050FFB
:1036B000216820F0800041E8050292B1206850E8BE
:1036C000050F216820F0800041E805024AB120681A
:1036D00050E8050F216820F0800041E80502002A2B
:1036E000DAD1A06B002818BFFEF726F8206850E852
:1036F000030F216820F0C00041E80302DAB120681E
:1037000050E8030F216820F0C00041E8030292B1A5
:10371000206850E8030F216820F0C00041E8030250
:103720004AB1206850E8030F216820F0C00041E84A
:103730000302002ADAD1202084F841002068406981
:1037400094F84210222940F0A78010F0400000F0C9
:10375000A38000BF206850E8050F216820F04000DA
:1037600041E80502DAB1206850E8050F216820F031
:10377000400041E8050292B1206850E8050F216839
:1037800020F0400041E805024AB1206850E8050FEA
:10379000216820F0400041E80502002ADAD1E06B00
:1037A000002818BFFDF7C8FF206850E8030F216804
:1037B00020F4907041E80302BAB3206850E8030F88
:1037C000216820F4907041E8030272B3206850E849
:1037D000030F216820F4907041E803022AB32068A7
:1037E00050E8030F216820F4907041E80302002A9A
:1037F000DAD11AE0206850E8050F216820F00100B6
:1038000041E80502DAB1206850E8050F216820F090
:10381000010041E8050292B1206850E8050F2168D7
:1038200020F0010041E805024AB1206850E8050F88
:10383000216820F0010041E80502002ADAD1206B5E
:10384000012824D1206850E8030F216820F01000DF
:1038500041E80302DAB1206850E8030F216820F044
:10386000100041E8030292B1206850E8030F21687C
:1038700020F0100041E803024AB1206850E8030F2D
:10388000216820F0100041E80302002ADAD120204C
:1038900084F8420000202063002010BD7047000023
:1038A000B0B582B0044600680168C368426901F09F
:1038B0002F05202D03F0200506D12DB1204602B0A2
:1038C000BDE8B04001F01ABD5FEA017C1EBF02F006
:1038D000010E03F4907212EB0E0243D1226BCD065F
:1038E00018D5012A16D113F0100213D0002101912E
:1038F00001680191416801910199406940063BD4FA
:10390000A08DE18DE28D002A18BF884240F0F2813F
:1039100002B0B0BD0A0640F1E78013F0800200F06B
:10392000E38094F841102129F2D1A168B1F5805FBC
:1039300003D12169002900F06382216A4A1C2262B6
:1039400009784160E18C01390A04E184E0D1C16861
:1039500021F08001C160C16841F04001C16002B046
:10396000B0BD00BFCA0718BF13F4807240F0D0800A
:103970004A0700F1D380D8E0E06B016849688AB259
:10398000002AC5D0A38D9A42C2D2E1858069202841
:1039900000F09E80206850E8030F216820F48070BA
:1039A00041E80302DAB1206850E8030F216820F4EF
:1039B000807041E8030292B1206850E8030F21684B
:1039C00020F4807041E803024AB1206850E8030FF8
:1039D000216820F4807041E80302002ADAD12068CF
:1039E00050E8050F216820F0010041E80502C2B34C
:1039F000206850E8050F216820F0010041E8050229
:103A00007AB3206850E8050F216820F0010041E8F2
:103A1000050232B3206850E8050F216820F001004C
:103A200041E80502002ADAD11BE000BF206850E817
:103A3000050F216820F0400041E80502DAB1206856
:103A400050E8050F216820F0400041E8050292B1DE
:103A5000206850E8050F216820F0400041E8050289
:103A60004AB1206850E8050F216820F0400041E885
:103A70000502002ADAD1202084F8420000202063C9
:103A8000206850E8030F216820F0100041E803028D
:103A9000DAB1206850E8030F216820F0100041E8F7
:103AA000030292B1206850E8030F216820F0100053
:103AB00041E803024AB1206850E8030F216820F072
:103AC000100041E80302002ADAD1E06BFDF734FE72
:103AD00002206063A08DE18D401A81B2204602B0C1
:103AE000BDE8B040FFF79ABD49067FF511AF13F06E
:103AF00040013FF40DAFC16821F04001C1602021B9
:103B0000204684F8411002B0BDE8B04000F068BB28
:103B1000626C42F0010262644A0706D5BEF1000FF2
:103B200003D0626C42F0020262648A0706D5BEF1DD
:103B3000000F03D0626C42F004026264BCF1000F1B
:103B400006D55EEA050203D0626C42F008026264A8
:103B5000626C002A3FF4DCAE890604D51DB1204614
:103B600001F0CCFB20684069616C00F0400001F07E
:103B70000801401800F0B680206850E8030F216863
:103B800020F4907041E80302BAB3206850E8030FB4
:103B9000216820F4907041E8030272B3206850E875
:103BA000030F216820F4907041E803022AB32068D3
:103BB00050E8030F216820F4907041E80302002AC6
:103BC000DAD11AE0206850E8050F216820F00100E2
:103BD00041E80502DAB1206850E8050F216820F0BD
:103BE000010041E8050292B1206850E8050F216804
:103BF00020F0010041E805024AB1206850E8050FB5
:103C0000216820F0010041E80502002ADAD1206B8A
:103C1000012824D1206850E8030F216820F010000B
:103C200041E80302DAB1206850E8030F216820F070
:103C3000100041E8030292B1206850E8030F2168A8
:103C400020F0100041E803024AB1206850E8030F59
:103C5000216820F0100041E80302002ADAD1202078
:103C600084F842000020206320684069400640F14B
:103C7000C180206850E8050F216820F0400041E82D
:103C80000502DAB1206850E8050F216820F04000F5
:103C900041E8050292B1206850E8050F216820F044
:103CA000400041E805024AB1206850E8050F21684C
:103CB00020F0400041E80502002ADAD1E06B00283C
:103CC00000F0988044F6FD71C0F600014163FDF7F5
:103CD00057FD00283FF41CAEE06B416B02B0BDE81D
:103CE000B04008472046FFF7D9FD0020606402B0CD
:103CF000B0BD00BF401A00BF216851E8031F226811
:103D000021F4907142E80313BBB3216851E8031F0B
:103D1000226821F4907142E8031373B3216851E8DB
:103D2000031F226821F4907142E803132BB321682A
:103D300051E8031F226821F4907142E80313002B1D
:103D4000DAD11AE0216851E8051F226821F001014B
:103D500042E80513DBB1216851E8051F226821F014
:103D6000010142E8051393B1216851E8051F22685B
:103D700021F0010142E805134BB1216851E8051F0C
:103D8000226821F0010142E80513002BDAD120213D
:103D900084F8421000212163216851E8031F226842
:103DA00021F0100142E80313DBB1216851E8031F41
:103DB000226821F0100142E8031393B1216851E811
:103DC000031F226821F0100142E803134BB1216860
:103DD00051E8031F226821F0100142E80313002B71
:103DE000DAD1022281B22046626302B0BDE8B0405F
:103DF000FFF714BC204602B0BDE8B040FFF74EBD4F
:103E0000216A31F8022B6FF35F224260216299E54B
:103E1000002804BF0120704710B5044690F8410007
:103E200028B9002084F84000204600F063F82420E0
:103E300084F841002068D4E90212C36823F40053D7
:103E4000C360036923F440531A430261D4E9042395
:103E50001143C268194341F20C639A431143C16094
:103E60004169A26921F44071114343F60002C4F292
:103E700001029042416103D0FEF7B4F902E000BFB5
:103E8000FEF7C4F9D4E90023192148439900B0FB97
:103E9000F1F048F21F5CC5F2EB1CA0FB0C314FF6B1
:103EA0009C734909C0F6FF7301FB0300322303EB47
:103EB0000010A0FB0C03F02000EA531000EB0110EF
:103EC000C3F34311084490601069202120F490400E
:103ED0001061506920F02A005061D06840F4005011
:103EE000D0600020606484F8411084F84210606360
:103EF00010BD00002DE9F04186B00446006844F290
:103F00000041C4F20001002788420597CDE90377FC
:103F100002973BD043F60001C4F20101884240F011
:103F2000A78041F21800C4F20200016840F60004C4
:103F300041F4804101600168C4F2010401F4804150
:103F400001910199016802AD41F00401016000682E
:103F5000294600F00400019001984FF4007002908F
:103F600002200390032005902046FDF79DFE4FF4AC
:103F7000806002900020CDE9030020462946FDF72D
:103F800093FE25200121002225246CE041F2180037
:103F9000C4F20200416802AE41F400314160416860
:103FA00040F26C0801F40031019101990168C4F2FA
:103FB000020841F0200101600068314600F0200055
:103FC0000190019820200290022003900320059088
:103FD00040F60000C4F2010000F540652846FDF7F8
:103FE00063FE4020CDE90207284631460497FDF7DD
:103FF0005BFE0420C4F20100016840F2B80541F004
:10400000E06141F00801C2F2000501608026284607
:10401000C5E90087C5E90276C5E90477C5E90677F1
:10402000FDF78EFD002818BFFDF780FBE5636C628D
:1040300040F2FC0508F11400C2F200051021002234
:1040400085E847002846C5E90422C5E90622FDF7B0
:1040500077FD002818BFFDF769FBA5636C62262079
:10406000002100222624FDF79FFF2046FDF78AFF4E
:1040700006B0BDE8F081000070B582B0044690F84B
:10408000420020280AD113460A4600294FF00100B9
:1040900018BF002B06D102B070BD00BF022002B0D5
:1040A00070BD00BF002522202563A262A385656440
:1040B00084F842002168E06B45F2851C45F2E52E4C
:1040C00045F20906C0F6000CC0F6000EC0F6000668
:1040D0000431C0E90ACEC0E90C65FDF781FD019508
:1040E000206801680191406801900198206928B317
:1040F000206850E8030F216840F4807041E8030213
:10410000E2B1206850E8030F216840F4807041E874
:1041100003029AB1206850E8030F216840F48070D0
:1041200041E8030252B1206850E8030F216840F4CF
:10413000807041E80302002ADAD100BF206850E80D
:10414000050F216840F0010041E80502BAB320687C
:1041500050E8050F216840F0010041E8050272B304
:10416000206850E8050F216840F0010041E8050291
:104170002AB3206850E8050F216840F0010041E8AB
:104180000502002ADAD11AE0206850E8050F2168FC
:1041900040F0400041E80502DAB1206850E8050F20
:1041A000216840F0400041E8050292B1206850E8E3
:1041B000050F216840F0400041E805024AB120683F
:1041C00050E8050F216840F0400041E80502002A50
:1041D000DAD1002002B070BD7047000070470000C7
:1041E00070470000FEE7000080B582B041F2140085
:1041F000C4F202000168002241F001010160006880
:10420000002100F00100019001981020FDF7CCFE84
:104210001020FDF7B7FE112000210022FDF7C4FE9B
:10422000112002B0BDE88040FDF7ACBE2DE9F04F93
:1042300085B041F21800C4F20200016840F60006A1
:1042400041F0100101600168C4F2010601F01001A3
:10425000019101990168002241F0040101600168A7
:104260003C2701F004010191019901684FF0000819
:1042700041F040010160016801F0400101910199A4
:10428000016841F020010160016801F02001019105
:104290000199016841F00801016000683C2100F0CB
:1042A0000800019001983046FDF7F8FD06F54065DD
:1042B00028464FF4406100224FF44069FDF7EEFDBF
:1042C00006F58064204630210022FDF7E7FD0197C6
:1042D00001AF4FF0010B4FF0020A30463946CDE9ED
:1042E00002B8CDF810A0FDF7DFFC28463946CDE92D
:1042F000019BCDE9038AFDF7D7FC3020CDE9010B06
:1043000020463946CDE9038AFDF7CEFC05B0BDE86D
:10431000F08F000070B59CB041F20004C4F20104BB
:1043200040F24010002104F5E052C2F200004723A1
:1043300040F2E7361691CDE914111191CDE90F1134
:10434000CDE90D11CDE90B11CDE90911CDE9071129
:10435000CDE90511CDE90311CDE90111C0E9002333
:10436000C0E90216C0E904118161FEF7F1F90028E5
:1043700018BFFDF7DBF94FF48050139040F2401066
:10438000C2F2000013A9FEF7A1FA002818BFFDF73A
:10439000CDF940F24010C2F20000FEF7CDFE002839
:1043A00018BFFDF7C3F940F240100025C2F200002B
:1043B00010A9CDE91055FEF77FF9002818BFFDF7C9
:1043C000B5F96020CDE9090540F24010C2F20000C5
:1043D00009A90022CDE90B55CDE90D550F95FEF742
:1043E00075FD002818BFFDF7A1F940F24010C2F298
:1043F000000009A90422FEF769FD002818BFFDF797
:1044000095F940F24010C2F2000009A90822FEF717
:104410005DFD002818BFFDF789F940F24010C2F297
:10442000000009A90C22FEF751FD002818BFFDF776
:104430007DF940F240154FF40050C2F2000500260D
:10444000069001A928460596CDE90366CDE90166E7
:104450000896FEF709F9002818BFFDF767F92868E4
:1044600043F20041C4F2010188421B96CDE919666E
:10447000189629D042F60041C4F2010188423AD18F
:1044800041F21800C4F20200016841F040010160ED
:10449000006818A900F04000179017984FF4D44016
:1044A0001890022019901B9004F50060FDF7FCFBAA
:1044B0000420C4F20100016841F0E06141F0C00154
:1044C00001601CB070BD00BF41F21800C4F20200D0
:1044D000016841F010010160006818A900F01000A7
:1044E000179017984FF470701890022019901B9035
:1044F0002046FDF7D9FB1CB070BD000080B58CB024
:1045000040F288100021C2F200004FF0804241F2D8
:104510006F73C0E900210122CDE90011C0E9021347
:1045200001618161CDE90321CDE90521CDE90711C3
:10453000CDE909210B9103A9FEF798FA002818BFCD
:10454000FDF7F4F840F28810C2F200006946FEF769
:10455000B3F8002818BFFDF7E9F80CB080BD0000E3
:1045600080B58CB040F2D01040F200420021C2F27F
:104570000000C4F2000241F26F73C0E90021012281
:10458000CDE90011C0E9021301618161CDE9032188
:10459000CDE90521CDE90711CDE909210B9103A949
:1045A000FEF764FA002818BFFDF7C0F840F2D010FB
:1045B000C2F200006946FEF77FF8002818BFFDF739
:1045C000B5F80CB080BD000080B58CB040F218206A
:1045D00040F600020021C2F20000C4F2000241F2E3
:1045E0006F73C0E900210122CDE90011C0E9021377
:1045F00001618161CDE90321CDE90521CDE90711F3
:10460000CDE909210B9103A9FEF730FA002818BF64
:10461000FDF78CF840F21820C2F200006946FEF760
:104620004BF8002818BFFDF781F80CB080BD0000E2
:1046300080B58CB040F2602040F600420021C2F20A
:104640000000C4F2000241F26F73C0E900210122B0
:10465000CDE90011C0E9021301618161CDE90321B7
:10466000CDE90521CDE90711CDE909210B9103A978
:10467000FEF7FCF9002818BFFDF758F840F260205B
:10468000C2F200006946FEF717F8002818BFFDF7D0
:104690004DF80CB080BD000080B582B040F2A8207B
:1046A00041F200420021C2F20000C4F2000240F2D6
:1046B000CF2342F20F7CCDE90011C0E90023C0E90D
:1046C000021C8161FEF744F8002818BFFDF72EF8A0
:1046D00040F2A820C2F200006946FDF7EDFF002875
:1046E00018BFFDF723F802B080BD000070B59CB084
:1046F00041F20004C4F2010440F2F020002104F56C
:104700001052C2F2000041F61F4340F2CF761691DC
:10471000CDE914111191CDE90F11CDE90D11CDE9BC
:104720000B11CDE90911CDE90711CDE90511CDE94D
:104730000311CDE90111C0E90023C0E90216C0E967
:1047400004118161FEF704F8002818BFFCF7EEFFA2
:104750004FF48050139040F2F020C2F2000013A9F1
:10476000FEF7B4F8002818BFFCF7E0FF40F2F02095
:10477000C2F20000FEF7E0FC002818BFFCF7D6FFED
:1047800040F2F0200025C2F2000010A9CDE910553A
:10479000FDF792FF002818BFFCF7C8FF6020CDE9A5
:1047A000090540F2F020C2F2000009A90022CDE97B
:1047B0000B55CDE90D550F95FEF788FB002818BF66
:1047C000FCF7B4FF40F2F020C2F2000009A9042275
:1047D000FEF77CFB002818BFFCF7A8FF40F2F02092
:1047E000C2F2000009A90822FEF770FB002818BFDA
:1047F000FCF79CFF40F2F020C2F2000009A90C2255
:10480000FEF764FB002818BFFCF790FF40F2F0258C
:104810004FF40050C2F200050026069001A9284678
:104820000596CDE90366CDE901660896FDF71CFF04
:10483000002818BFFCF77AFF286843F20041C4F251
:10484000010188421B96CDE91966189628D042F6D8
:104850000041C4F20101884239D141F21800C4F28A
:104860000200016841F040010160006818A900F0F1
:104870004000179017984FF4D440189002201990D8
:104880001B9004F50060FDF70FFA0420C4F201004C
:10489000016841F0E06141F0C00101601CB070BDF1
:1048A00041F21800C4F20200016841F010010160F9
:1048B000006818A900F01000179017984FF4707056
:1048C0001890022019901B902046FDF7EDF91CB0BE
:1048D00070BD000080B540F2383043F60001C2F2EE
:1048E0000000C4F2010100234FF00C0C4FF4E13240
:1048F00080E80E00C0E90333C0E905C3C361FFF7D8
:1049000087FA002808BF80BDBDE88040FCF70EBFD5
:1049100080B540F2803044F20041C2F20000C4F29F
:10492000000100234FF00C0C4FF4E13280E80E0040
:10493000C0E90333C0E905C3C361FFF769FA002882
:1049400008BF80BDBDE88040FCF7F0BE70B582B006
:1049500040F278454CF6CD444CF20006C2F2000518
:104960004CF28F2141F27B424CF6CD43C3F6CC543E
:10497000C4F27946C3F67541C3F6AE52C3F64C5342
:104980002846CDE9006400F03BFA05F12C002146F1
:1049900022462346CDE9006400F032FA05F15800C2
:1049A000214622462346CDE9006400F029FA05F1AC
:1049B0008400214622462346CDE9006400F020FA17
:1049C00002B070BDFEE7000010B5FFF7BFFFFCF7B7
:1049D000EFFB00F057FA40F28C0040F28034C2F254
:1049E0000000C2F2000400F10C0120462022FFF773
:1049F00043FB2068C16841F01001C16010BD000098
:104A0000B0B540F28C04C2F20004207BAA2818D171
:104A1000E07C552815D1617BD4F80E00A27C217072
:104A200060600729227224BF0021217020F000401D
:104A30004FF080414FF08045FBF7B2FF002808BFE0
:104A40006560002344F80C3F40F28030C4E9013334
:104A5000C4E90333C4E90533C2F200002146202231
:104A6000E361BDE8B040FFF707BB000010B540F2BE
:104A70008C0040F28034C2F20000C2F2000400F167
:104A80000C0120462022FFF7F7FA2068C16841F0A8
:104A90001001C16010BD00002DE9F04F85B040F25B
:104AA0008C00C2F200000178027A062903920BD82A
:104AB00040684FF0000B82460024DFE801F0052932
:104AC0000B0F13191F0000BF0120FCF767FD4FF00B
:104AD000000B1AE080F0004A1AE000BF4FF0000A15
:104AE000044615E080F000444FF0000A10E000BFDB
:104AF00040F6D071C4F2490104E000BF40F6D07125
:104B0000CCF24901FBF754FD83464FF0000A002424
:104B100040F21002C2F2000240F2000892E80302E2
:104B2000C3F6E078D76800224346CDE900A4FBF73E
:104B300056FE05460E464846394600224346FBF7D8
:104B40004EFE02460B4628463146FBF7A1FDFBF719
:104B50009FFF804650462146FBF724FD0446029005
:104B60008BF000404146DA46FBF722FD21468346A2
:104B7000FBF7C6FCFBF779FF054640F21000C2F2D6
:104B800000004269006942F2FA130E46C4F21903AA
:104B900011460022FBF723FE04460F462846314605
:104BA00022463B46FBF78DFE40F20009C4F24E0957
:104BB00000224B46FBF713FEFBF76AFF0490DDE98A
:104BC0000001FBF79DFC064650464146FBF7F0FC12
:104BD00031460546FBF794FCFBF747FF22463B4670
:104BE000FBF76FFE00224B46FBF7F9FDFBF750FF8A
:104BF000824658463146FBF783FCFBF736FF2246D8
:104C00003B46FBF75EFE00224B46FBF7E8FDFBF759
:104C10003FFF029980462846FBF772FCFBF725FF11
:104C200022463B46FBF74DFE00224B46FBF7D7FDE5
:104C3000FBF72EFF81460498002120F0004528460E
:104C4000FBF7CAFE2AF00046002808BF054630469A
:104C50002946CDF808A0FBF7BFFE044600281CBF7C
:104C60000124354628F0004630462946FBF7B4FEBD
:104C70002F4629F0004B002818BF374658463946C2
:104C8000FBF7AAFE824630462946FBF7A5FE002820
:104C90003D465846394618BF0224BAF1000F18BFE6
:104CA0005D46FBF799FE002840F2C830C2F20000D2
:104CB0004FF02C0118BF032404FB0100046A2846AE
:104CC0002146FBF76DFE18BB20460021FBF768FE6E
:104CD000F0B920462946FBF79DFC04990446FBF7F2
:104CE00067FC029905462046FBF762FC0646204613
:104CF0004146FBF75DFC804620464946FBF758FCE1
:104D000081460398012808D000F0B0F807E000BF02
:104D1000049D029E03980128F6D100F0E3F80020DC
:104D20002946FCF7A1F901203146FCF79DF9022044
:104D30004146FCF799F90320494605B0BDE8F04F1C
:104D4000FCF792B9FEE700002DE9F047002853D0A8
:104D500004460161C068D4E90776D4F82880FBF7DF
:104D600021FC414682466061FBF722FC3946FBF795
:104D7000C7FB31460746E061FBF72EFE30B986F0EF
:104D8000004638463146FBF719FE08B93746E6615A
:104D9000D4E90060D4F80890A5693946FBF708FC0F
:104DA000074630465146FBF703FC3946FBF7A8FBA4
:104DB000064650462946FBF7F5FB01464846FBF7F9
:104DC000F7FB4146FBF726FC01463046FBF798FB14
:104DD000666A07463146FBF7FFFD38B938460021C1
:104DE000FBF7ECFD3E46002808BF00263046C4F81D
:104DF00018A0BDE8F08700BF0020BDE8F0870000E4
:104E0000002808BF70472DE9F0410446DDE9060897
:104E1000154684E80E006062FBF727FE49F69A12F9
:104E200049F69913C9F69912C3F6E973FBF7D7FC53
:104E3000064628460F46FBF718FE02460B4630464C
:104E40003946FBF73EFDFBF723FE0021C4F828801E
:104E5000C4E90511C4E90710E160BDE8F0417047FD
:104E6000002818BFC16070477047000040F2F02072
:104E7000C2F2000001680F2200204A638A63CA63FD
:104E80000A64704780B540F2F020C2F200000021B1
:104E9000FEF784F9002818BFFCF748FC40F2F02028
:104EA000C2F200000421FEF779F9002818BFFCF7D0
:104EB0003DFC40F2F020C2F200000821FEF76EF93E
:104EC000002818BFFCF732FC40F2F020C2F20000CC
:104ED0000C21FEF763F9002808BF80BDBDE88040C3
:104EE000FCF724BC40F2F020C2F200000168052269
:104EF00000204A638A63CA630A64704770470000EF
:104F0000FCF7D8BF7047000040F2A820C2F20000B2
:104F1000FDF732BF10B540F6FF3E0368C4F2000E45
:104F200043F2004C7045C4F2010C21DCB0F1804F1B
:104F30002CD040F20042C4F20002904226D040F64B
:104F40000002C4F20002904220D0704524DCB0F18F
:104F5000804F2FD040F20042C4F20002904229D08C
:104F600040F60002C4F20002904223D026E000BFC7
:104F700040F60042C4F20002904207D0604505D0DE
:104F800042F60042C4F201029042DED14A6823F0A8
:104F9000700313437045DADD40F60042C4F20002AC
:104FA000904207D0604505D042F60042C4F20102AB
:104FB000904203D1CA6823F44073134323F0800264
:104FC0004B69D1F800E08C681A4360450260C46206
:104FD000C0F828E005D042F60042C4F20102904237
:104FE00001D109690163012141610169C90708BF54
:104FF00010BD016921F00101016110BD406A00216D
:10500000C185C184FEF74ABC406A01684A6990F8CC
:105010004130212B2DD112F080022AD00021C184F1
:10502000016851E8031F026821F0C00142E8031340
:10503000DBB1016851E8031F026821F0C00142E8BA
:10504000031393B1016851E8031F026821F0C00106
:1050500042E803134BB1016851E8031F026821F0D5
:10506000C00142E80313002BDAD1202180F841105F
:105070000168496990F84220222A40F07D8011F0B1
:10508000400179D00021C185016851E8031F026801
:1050900021F4907142E80313BBB3016851E8031F88
:1050A000026821F4907142E8031373B3016851E878
:1050B000031F026821F4907142E803132BB30168C7
:1050C00051E8031F026821F4907142E80313002B9A
:1050D000DAD11AE0016851E8051F026821F00101E8
:1050E00042E80513DBB1016851E8051F026821F0B1
:1050F000010142E8051393B1016851E8051F0268F8
:1051000021F0010142E805134BB1016851E8051F88
:10511000026821F0010142E80513002BDAD1016B8E
:10512000012924D1016851E8031F026821F0100110
:1051300042E80313DBB1016851E8031F026821F064
:10514000100142E8031393B1016851E8031F02689C
:1051500021F0100142E803134BB1016851E8031F2D
:10516000026821F0100142E80313002BDAD120215C
:1051700080F8421000210163416C41F0100141644C
:10518000FEF78CBB0168406A0968890600F19F80C0
:105190000021C185016851E8031F026821F4807174
:1051A00042E80313E3B1016851E8031F026821F4E8
:1051B000807142E803139BB1016851E8031F026844
:1051C00021F4807142E8031353B1016851E8031FD1
:1051D000026821F4807142E80313002BDAD100BF8A
:1051E000016851E8051F026821F0010142E805133A
:1051F000BBB3016851E8051F026821F0010142E8D4
:10520000051373B3016851E8051F026821F001011D
:1052100042E805132BB3016851E8051F026821F02D
:10522000010142E80513002BDAD11AE0016851E8C8
:10523000051F026821F0400142E80513DBB1016857
:1052400051E8051F026821F0400142E8051393B1BF
:10525000016851E8051F026821F0400142E805138A
:105260004BB1016851E8051F026821F0400142E896
:105270000513002BDAD1202180F84210016B01299F
:1052800025D100BF016851E8031F026821F0100119
:1052900042E80313DBB1016851E8031F026821F003
:1052A000100142E8031393B1016851E8031F02683B
:1052B00021F0100142E803134BB1016851E8031FCC
:1052C000026821F0100142E80313002BDAD100211B
:1052D0004163016B012918BFFEF77EBF818DFEF788
:1052E0009DB90000406A01214163016B012918BF8B
:1052F000FEF774BF818D4908FEF790B981B090F830
:105300004210222921D183680246B3F5805F09D17A
:1053100052F8281F52F8183C002B63D003685B68D2
:105320000AE000BF52F8281F13B90369002BF5D01B
:1053300003685B6803F07F030B7011680131116033
:10534000C18D01390A04C18502D001B0704700BF88
:105350000168CA6822F02002CA60CA6822F480721A
:10536000CA604A6922F001024A61202180F8421095
:1053700000214163026B012A3CD10163016851E8BD
:10538000031F026821F0100142E80313DBB101683A
:1053900051E8031F026821F0100142E8031393B1A2
:1053A000016851E8031F026821F0100142E803136D
:1053B0004BB1016851E8031F026821F0100142E877
:1053C0000313002BDAD101680A68D20606D5002241
:1053D00000920A680092496800910099818D01B09D
:1053E000FEF71CB9026852686FF35F2221F8022BA6
:1053F0008162A5E701B0FEF7EFBE000040F2383051
:10540000C2F20000FEF74CBA10B582B040F2803014
:10541000C2F2000000680168C9060ED500210191A2
:105420000168019140680190019840F28030C2F219
:105430000000FEF725F9FFF7E3FA40F28034C2F2EC
:1054400000042046FEF72CFA204602B0BDE81040CA
:10545000FEF726BAFEE7000090B0FCF739FD002405
:105460000120CDE90B44CDE9094406900A904FF4A0
:10547000E0104FF4803102250F9006A8CDE9071403
:10548000CDE90D51FCF7D6FE20B1EFF3108072B6D6
:10549000FEE700BF0F20CDE901054FF48060CDE9A4
:1054A000040401A802210394FCF7BAFD20B1EFF334
:1054B000108072B6FEE700BFFEF7B8FEFEF794FE5E
:1054C000FEF728FFFFF71AF8FFF74AF8FFF77CF816
:1054D000FFF7AEF8FFF7E0F8FFF7FCF9FFF706F982
:1054E000FFF716FAFFF770FAFFF7C0FAFEE702E0DF
:1054F00008C8121F08C1002AFAD17047704700205F
:1055000001E001C1121F002AFBD1704730380A2880
:1055100001D20120704700207047DDDDDDDDDCBBFE
:10552000BBDDDDDDDDDDDDDDDDDD988888888888BB
:10553000888877777777778888888555555666661F
:1055400066666666666666688888833333322222BA
:105550002222222222222228888D00000000000020
:105560000000010203040607080900000000010210
:105570000304010202030405060708090A0B0C0DC7
:105580000E0F10104001002000000000000C014030
:1055900010000000000C01402000000088010020E5
:1055A0008A00000000000000000000000000000071
:1055B000400100200400000000080140100000002D
:1055C0000008014020000000D00100208A000000F7
:1055D000000000000000000000000000400100206A
:1055E0000800000000140140000400000014014005
:1055F00000080000180200208A00000000000000DF
:105600000000000000000000400100200C0000002D
:1056100000080140040000000008014008000000EC
:10562000600200208A00000000000000000000006E
:1056300000000000413D25662C423D25662C433D7F
:1056400025662C443D25662C453D25660A002566C9
:105650002C00000078560008000000202800000000
:10566000EE540008A0560008280000200809000099
:10567000FE540008000000000100000010000000BF
:1056800000127A0000000000000000A09999C93FB4
:10569000000000A09999B93F000000A09999A93F86
:0400000508000131BD
:00000001FF
