:020000040800F2
:10000000D009002045010008C1490008153D00083D
:100010005145000811090008D951000800000000EE
:10002000000000000000000000000000794B000804
:10003000690F000800000000E54A00087D4B000839
:100040005F0100085F0100085F0100085F01000810
:100050005F0100085F0100085F0100085F01000800
:100060005F0100085F0100085F0100085F010008F0
:100070005F010008390F00085F010008450F000804
:10008000510F00085D0F00085F0100085F010008C4
:100090005F0100085F0100085F0100085F010008C0
:1000A0005F0100085F0100085F0100085F010008B0
:1000B0005F0100085F0100085F0100085F010008A0
:1000C0005F0100085F0100085F0100085F01000890
:1000D0005F0100083151000881510008CD5100082E
:1000E0005F0100085F0100085F0100085F01000870
:1000F0005F0100085F0100085F0100085F01000860
:100100005F0100085F0100085F0100085F0100084F
:100110005F0100085F0100085F010008854B0008CF
:100120005F0100085F0100085F0100085F0100082F
:10013000DFF80CD000F0C4FB00480047DD51000898
:10014000D00900200648804706480047FEE7FEE742
:10015000FEE7FEE7FEE7FEE7FEE7FEE7FEE7FEE777
:10016000814B00083101000840EA01039B0703D0DE
:1001700009E008C9121F08C0042AFAD203E011F8E6
:10018000013B00F8013B521EF9D27047F0B480EAFF
:100190000102D40F4200B2EB410F02D202460846E0
:1001A00011464A0042D0C30DDDB2C1F3C752AD1AA9
:1001B000202D35DAC1F3160141F4000204B1524298
:1001C000C5F1200602FA06F12A411044B3EBD05FD4
:1001D00023D0C4B1012DA0EBC35009DCF0BC4FF01B
:1001E000004202EAC352DBB200F5000000F0DCBAC4
:1001F000400000F1807000EBC350A0F1807040EA35
:10020000D170490009E0490841EAC071A0EBC35030
:1002100000F50000400800EBC350F0BC00F0BBBA92
:100220006142012202EB4101001BF6E7F0BC70477E
:1002300081F00041AAE780F00040A7E780EA0102D0
:1002400010B502F00043400022D04A001FD0010E3A
:1002500001EB1261C0F35600C2F3560240F40000F5
:1002600042F40002A0FB022000047F39140400D0F5
:10027000401C50EA124001D44000491EC2B20C0694
:1002800004EBD010401C4008802A02D003E000207C
:1002900010BD20F00100002900DA0020184310BD35
:1002A00030B480EA010202F0004530F0004221F053
:1002B000004013D090B1C30DD40DC2F31601C0F3AA
:1002C0001600E41A41F4000140F400027D3491422A
:1002D00001D3641C00E04900002C02DA30BC00208D
:1002E00070474FF400000023914201D3891A034361
:1002F00040084FEA4101F7D151B1914202D14FF08C
:10030000004105E002D24FF0010101E06FF0010170
:1003100003EBC450284430BC00F03DBA2DE9FE4F39
:10032000804681EA0300C00F0C46009021F0004196
:1003300023F00045B8EB0200A94105D24046214612
:1003400090461C460B46024623F00040104347D01F
:10035000270DC7F30A00C3F30A510290401A019017
:1003600040286BDAC3F3130040F4801B00989246D8
:1003700020B10023D2EB030A63EB0B0B0198594623
:10038000C0F14002504600F0E5F906460D465046E1
:100390005946019A00F0EDF910EB08006141002484
:1003A00087EA115284EAE7731A4340D0009A62B395
:1003B000019A012A4FEA075215DC001B61EB02018A
:1003C0004FF0004202EA0752CDE90042001C41F51D
:1003D000801132462B4600F024FA03B0BDE8F08FBE
:1003E00040462146F9E7001B61EB0201001C41F584
:1003F000801300185B412018A2F5001747EB03019A
:1004000040EAD570B6196D4111E06D084FEA360625
:1004100045EAC0754FEA0752001B61EB0201001C60
:1004200041F5801149084FEA300000195141324628
:100430002B4603B0BDE8F04F00F0E4B9009801226C
:1004400040000023D0EB020263EBE07300982146EA
:100450004FEAE074B8EB000061EB0401E9E783F0D8
:1004600000435BE781F0004158E72DE9FE4F81EA48
:10047000030404F0004421F0004100944FF0000B0D
:1004800023F0004350EA01045ED052EA03045BD03B
:10049000C3F30A54C1F30A552C44A4F2F334019473
:1004A000A0FB0254C1F3130141F48011C3F3130301
:1004B00043F4801301FB024400FB034E840A970AB5
:1004C00044EA815447EA8357A4FB076802958D0AE2
:1004D00005FB07854FEA932C04FB0C542705029D6E
:1004E0004FEA065847EA1637B5EB08056EEB070CDE
:1004F000870E920E47EA811742EA8312A7FB020198
:10050000B6EB0B0164EB00042B0D43EA0C335E18D1
:1005100044EB1C50DA465146E7FB0201C5F31304D5
:100520004FEA0B3343EA14534FEA0432019C43EA87
:100530000603A4F10C040294009CCDE900B400F081
:1005400070F903B0BDE8F08F00200146F9E72DE90E
:10055000F04D81EA030404F0004B21F000451446FD
:100560004FF0000A23F0004150EA050220D054EA7F
:1005700001021DD0C5F30A570246C5F31303C1F3A8
:100580001300C1F30A5640F4801543F48013A7EB1F
:100590000608101BD64608F2FD3873EB050002D39F
:1005A00008F1010801E092185B41B8F1000F03DA8D
:1005B00000200146BDE8F08D00204FF48011064672
:1005C00084460EE0171B73EB050705D3121B63EB84
:1005D000050306434CEA010C49084FEA3000921823
:1005E0005B4150EA0107EDD152EA030012D082EAE2
:1005F000040083EA0501084305D0101BAB4106D275
:100600000122002306E000224FF0004302E06FF0D9
:10061000010253101AEB06004CEB085110EB0A00D4
:1006200041EB0B01BDE8F04D00F0ECB8002801DB18
:10063000C0F10040002901DBC1F10041814201D835
:100640000120704700207047002801DBC0F1004006
:10065000002901DBC1F10041814201D30120704733
:1006600000207047002801DBC0F10040002901DBB9
:10067000C1F10041814201D901207047002070473B
:10068000C10F80EAE0700844CA079623002100F0F9
:100690008BB896230022114600F086B800F0004285
:1006A00020F00040C10DC0F3160040F400007F2987
:1006B00001DA00207047962903DCC1F19601C84099
:1006C00001E096398840002AF4D04042704720F07B
:1006D0000040C10DC0F3160040F400007F2901DA8C
:1006E00000207047962903DCC1F19601C84070478D
:1006F00096398840704700F0004230F000400AD040
:10070000C10D01F56071C0F3160042EA0151C20843
:1007100040071143704700200146704701F0004335
:1007200030B421F0004150EA010206D00A0DA2F5D2
:100730006072C1F31301002A02DC30BC0020704754
:10074000440F44EAC104C100E01830BC00EBC250C1
:1007500000F021B8202A04DB203A00FA02F1002040
:1007600070479140C2F1200320FA03F319439040EF
:100770007047202A06DBCB17203A41FA02F043EA01
:10078000E07306E041FA02F3D040C2F1200291404A
:100790000843194670470029A8BF7047401C49000C
:1007A00008BF20F00100704710B4B0FA80FC00FAD6
:1007B0000CF050EA010404BF10BC704749B1CCF101
:1007C000200421FA04F411FA0CF118BF012121438D
:1007D0000843A3EB0C01CB1D4FEA00614FEA102048
:1007E00042BF002010BC704700EBC35010440029EA
:1007F000A4BF10BC7047401C490008BF20F0010096
:1008000010BC704710B5141E73F1000408DA401CC8
:1008100041F1000192185B411A4301D120F001001F
:1008200010BD2DE9F04D92469B4611B1B1FA81F20F
:1008300002E0B0FA80F220329046FFF78BFF0446C8
:100840000F4640EA0A0041EA0B0153465A46084364
:1008500013D0114653EA010019D0C8F140025046A6
:1008600000F046F805460E46504659464246FFF708
:1008700071FF084305D0012004E020463946BDE859
:10088000F08D0020054346EAE0762C4337430A9872
:100890006305E40AA0EB08000022FD0A44EA47547D
:1008A0000A3002D500200146E9E701051019694127
:1008B000DDE9084500196941BDE8F04DA2E70000F7
:1008C0001CB509480090094801900546009C06E0C7
:1008D000E06840F0010394E8070098471034AC4208
:1008E000F6D3FFF729FC0000745300089453000866
:1008F000202A04DB203A21FA02F00021704721FA75
:1009000002F3D040C2F120029140084319467047DB
:10091000FEE70000032888BF704770B5044640F228
:1009200068400D46C2F200002C2104FB010640F293
:100930001850C2F2000004FB01002946756204F061
:10094000CDF80021366AC4F27A412846FFF776FCDA
:100950003146FFF7A5FCFFF7A1FE05463046002112
:10096000FFF780FE002808BF05462046294600F014
:1009700009F840F23000C2F2000001210170BDE828
:1009800070407047B0B5032888BFB0BD0C46002941
:100990000B4640F26841C2F200014FF02C0200FB0E
:1009A000021248BF6342B3F57A7F88BF00245368C0
:1009B000082B0DD0042B17D093BB2346002C48BF27
:1009C00063421268126853632C22012C32DA15E05C
:1009D0002346002C48BF634212681268D3632C225E
:1009E000012C27DA0AE000BF2346002C48BF6342EF
:1009F0001268126893632C22012C1BDA00FB02158B
:100A00000022A868A98900F069FE2869A98AB4F1C2
:100A1000FF3F1DDD0022BDE8B04000F05FBE00BF1B
:100A20002346002C48BF63421268126813642C22CC
:100A3000012CE3DB00FB02140122A068A18900F075
:100A40004DFE2069A18A0022BDE8B04000F046BEFC
:100A50000122BDE8B04000F041BE0000B0B540F258
:100A60006844C2F2000445F2C421C0F600012046E9
:100A7000B022FFF779FB40F20030C2F2000001F033
:100A800001FB002818BF00F071FAD4E9000101F061
:100A9000A5FF002818BF00F069FAA0693C2101F009
:100AA0002BFD002818BF00F061FAA269D4E90B0100
:100AB00012680023536201F091FF002818BF00F074
:100AC00055FA606C3C2101F017FD002818BF00F0BA
:100AD0004DFA626CD4E9160112680023536201F0EA
:100AE0007DFF002818BF00F041FA206F3C2101F083
:100AF00003FD002818BF00F039FA226FD4E9210164
:100B000012680023536201F069FF002818BF00F04B
:100B10002DFAD4F89C003C2101F0EEFC002818BF0F
:100B200000F024FAD4F89C1000220968A0684A62F8
:100B3000A189012200F0D2FD2069A18A002200F0E3
:100B4000CDFD6068082809D004280BD00028206853
:100B5000006814BF4030343007E000BF20680068F0
:100B60003C3002E020680068383040F2E731016034
:100B700040F2DC5000F0A4FCA56A216A2846FFF789
:100B800055FD002808BF2562A068A189002200F059
:100B9000A5FD2069A18A002200F0A0FD6068082858
:100BA00008D004280AD000282068006814BF40300C
:100BB000343006E0206800683C3002E020680068BD
:100BC000383000210160606B218F012200F086FD2A
:100BD000E06BB4F84010002200F080FD206B48B1BB
:100BE00004280BD00828E06A006814BF40303C306D
:100BF00007E000BFE06A0068343002E0E06A0068A5
:100C0000383040F2E731016040F2DC5000F058FC2F
:100C1000656DE16C2846FFF709FD002808BFE56413
:100C2000606B218F002200F059FDE06BB4F840109A
:100C3000002200F053FD206B40B104280AD00828A0
:100C4000E06A006814BF40303C3006E0E06A0068AB
:100C5000343002E0E06A0068383000210160206E24
:100C6000B4F86410012200F039FDA06EB4F86C10E5
:100C7000002200F033FDE06D40B104280AD00828BE
:100C8000A06D006814BF40303C3006E0A06D0068E5
:100C9000343002E0A06D0068383040F2E731016086
:100CA00040F2DC5000F00CFCD4F88050A16F2846D4
:100CB000FFF7BCFC002808BFA567206EB4F86410DD
:100CC000002200F00BFDA06EB4F86C10002200F0C2
:100CD00005FDE06D40B104280AD00828A06D006829
:100CE00014BF40303C3006E0A06D0068343002E0B4
:100CF000A06D0068383000210160D4F88C00B4F891
:100D00009010012200F0EAFCD4F89400B4F8981096
:100D1000002200F0E3FCD4F8880048B104280DD08C
:100D20000828D4F88400006814BF40303C3009E043
:100D3000D4F884000068343004E000BFD4F88400A4
:100D40000068383040F2E731016040F2DC5000F0DA
:100D5000B7FBD4F8AC50D4F8A4102846FFF766FCD3
:100D6000002808BFC4F8A450D4F88C00B4F8901040
:100D7000002200F0B3FCD4F89400B4F898100022DC
:100D800000F0ACFCD4F8880060B1042812D0082828
:100D9000D4F88400006814BF40303C30002101606A
:100DA000B0BD00BFD4F88400006834300021016079
:100DB000B0BD00BFD4F88400006838300021016065
:100DC000B0BD000070B540F26845C2F20005696828
:100DD000044608290CD0042912D02868002900688C
:100DE00014BF403034300021012C01600FD918E0CD
:100DF000286800683C300021012C016007D910E010
:100E00002868006838300021012C016009D8A868E2
:100E1000A989224600F062FC2869A98A224600F0CE
:100E20005DFC286B60B1042812D00828E86A0068CD
:100E300014BF40303C300021012C01600FD919E073
:100E4000E86A006834300021012C016007D911E004
:100E5000E86A006838300021012C01600AD8686B0C
:100E6000298F224600F03AFCE86BB5F84010224684
:100E700000F034FCE86D68B1042813D00828A86D90
:100E8000006814BF40303C300021012C016010D9B3
:100E90001BE000BFA86D006834300021012C016008
:100EA00007D912E0A86D006838300021012C0160DC
:100EB0000BD8286EB5F86410224600F00FFCA86E1F
:100EC000B5F86C10224600F009FCD5F8880068B12E
:100ED000042815D00828D5F88400006814BF4030D5
:100EE0003C300026012C066012D91FE0D5F88400A2
:100EF000006834300026012C066009D916E000BFD6
:100F0000D5F88400006838300026012C06600DD822
:100F1000D5F88C00B5F89010224600F0DFFBD5F82C
:100F20009400B5F89810224600F0D8FB40F230004B
:100F3000C2F20000067070BD40F25410C2F2000010
:100F400000F0D6B840F28800C2F2000000F0D0B83D
:100F500040F2CC00C2F2000000F0CAB840F210101B
:100F6000C2F2000000F0C4B870470000EFF3108038
:100F700072B600BFFEE70000014690F8210002288B
:100F800016D10868D1E90FC3026822F00E02026090
:100F9000026822F001020260012000FA03F2CCF89C
:100FA000042081F821000020002281F820207047D1
:100FB000042088630120002281F82020704700006F
:100FC00090F82110022927D1026840F2040C13681E
:100FD000C4F2020C23F00E03136013680CF17C01C1
:100FE0008A4223F0010111601AD940F20841C4F28B
:100FF00002018A4248D040F21C41C4F202018A42F6
:1010000046D040F23041C4F202018A4244D14FF44A
:101010008073CCF800345CE00421816301207047C8
:101020004321C4F202018A420EDD6B21C4F20201A7
:101030008A421BDC4421C4F202018A423CD058217E
:10104000C4F202018A4233E00821C4F202018A425A
:1010500036D01C21C4F202018A4237D03021C4F2BA
:1010600002018A4224D14FF4807230E06C21C4F234
:1010700002018A4226D08021C4F202018A4217D19D
:101080004FF0807223E000BF0123CCF8003420E051
:101090001023CCF800341CE00CF588614FF4803349
:1010A0008A4208BF4FF48053CCF8003411E000BFEF
:1010B0004FF480320BE000BF4FF4805207E000BFD6
:1010C000012204E04FF4801201E000BF1022CCF8AE
:1010D0000020012180F82110426B002180F82010AF
:1010E00022B180B590470021BDE880400846704796
:1010F00010B5D0E90FE3D0F800C0DEF80020DCF82E
:101100000010DA4054072DD511F004042AD0DCF881
:101110000010890605D4DCF8001021F00401CCF899
:1011200000100422C4F2020202F17C018C454BD96A
:1011300040F20841C4F202018C4500F0AF8040F259
:101140001C41C4F202018C4500F0AC8040F23041F9
:10115000C4F202018C4540F0A9804FF48061C2F8CE
:101160000014F3E0940745D511F0020442D0DCF8F6
:101170000010890608D4DCF8001021F00A01CCF830
:101180000010012180F821100422C4F2020202F1B1
:101190007C018C454CD940F20841C4F202018C45D7
:1011A00000F0B48040F21C41C4F202018C4500F012
:1011B000AF8040F23041C4F202018C4540F0AA8079
:1011C0004FF40071AEE000BF4321C4F202018C4530
:1011D00044DD6B21C4F202018C4551DC4421C4F290
:1011E00002018C4500F0A2805821C4F202018C4516
:1011F00068E000BF120740F1C18011F0080108BF8C
:1012000010BDDCF8001021F00E01CCF80010012117
:1012100001FA03F2CEF80420816380F82110016BFB
:101220000022002980F8202040F09280A6E000BF34
:101230004321C4F202018C4548DD6B21C4F2020156
:101240008C4555DC4421C4F202018C4500F08480B9
:101250005821C4F202018C4572E000BF0821C4F29B
:1012600002018C4566D01C21C4F202018C456BD072
:101270003021C4F202018C4524D14FF4806164E036
:101280006C21C4F202018C4556D08021C4F20201C7
:101290008C4517D14FF0806157E000BF0421C2F8A0
:1012A000001453E04021C2F800144FE002F58863B7
:1012B0004FF480219C4508BF4FF48041C2F80014D0
:1012C00044E000BF4FF480213FE000BF0821C4F29A
:1012D00002018C4544D01C21C4F202018C4545D04A
:1012E0003021C4F202018C452AD14FF400713EE056
:1012F0006C21C4F202018C4534D08021C4F2020179
:101300008C451DD14FF0007131E000BF022109E092
:10131000202107E002F588634FF400319C4508BFA7
:101320004FF40051C2F8001422E000BF4FF4804196
:101330000BE000BF042108E04FF4800105E000BF8E
:101340004FF4003113E000BF40211160C16AA9B120
:10135000BDE81040084700BF4FF4005107E000BF50
:10136000022104E04FF4001101E000BF20211160D0
:10137000816A0022002980F82020E9D110BD0000F8
:10138000014600284FF0010008BF70472DE9F047E3
:1013900040F2000CC4F2020C0A684FF6F8330CF568
:1013A000816ECBF6FD73724538BF03F5806303EBA6
:1013B000020E4CF6CD43CCF6CC43AEFB033E6FF0B1
:1013C00003060CF5806506EA9E06D1E901A9D1F86D
:1013D0000C803CBF0025C4F20205C1E90F5602266D
:1013E00081F82160166843F6F075AE4346EA0A06B6
:1013F000D1E9045746EA090646EA0806D1E9064358
:101400002E43374327433B43136000228A6381F80E
:10141000210081F820200020BDE8F047704700003F
:1014200090F820C0BCF1010F04BF02207047F0B556
:101430004FF0010E80F820E090F821C0BCF1010FC0
:1014400026D14FF0020C80F821C04FF0000CC0F8FC
:1014500038C0D0E900C4C56AC66BDCF80070102C37
:1014600027F00107CCF80070006C0EFA00F07060F5
:101470000846CCF8043004BF10460A46CCF80800F1
:10148000CCF80C20DCF8000045B140F00E000DE077
:10149000002180F820100220F0BD00BF20F00400E1
:1014A000CCF80000DCF8000040F00A00CCF80000A6
:1014B000DCF8000040F00100CCF800000020F0BD96
:1014C000B0B5044600F010F9054640F20000C2F243
:1014D00000000078611C18BF044400BF00F004F94C
:1014E000401BA042FAD3B0BD2DE9F04F82B00E6888
:1014F000002E00F0EF80A0F18042A2F58432870533
:1015000047EA922241F6004740F2004EC4F201073A
:101510000625C4F2010EB84208BF052500244FF08D
:1015200001080F234FF0000A4FF0000B052A38BFC7
:101530001546009509E000BF0E680AF1010A36FA67
:101540000AF204F1040400F0C58008FA0AFC16EA65
:101550000C09F1D04E684FF6FF72C1F210029642AC
:1015600012DC122E56D8DFE806F0350B45495555EA
:1015700055555555555555555555554D510000BF67
:10158000D1F80CB046E000BF4FF6FF72C1F2210265
:1015900096420FDC0022C1F2110296421AD00022BC
:1015A000C1F21202964215D00022C1F221029642E7
:1015B00010D02FE00022C1F2220296420AD000226F
:1015C000C1F23102964205D00022C1F232029642A7
:1015D00020D100BF8A684AB1012A14BFC0F814C0E4
:1015E000C0F810C04FF0080B14E000BF4FF0040B20
:1015F00010E000BFCA6802F1080B0BE04FF0000BCF
:1016000008E000BFCA6802F1040B03E0CA6802F1F7
:101610000C0B00BF22460646B9F5807F24BF203A56
:101620000436376803FA02F5AF430BFA02F23A4385
:101630003260CA79D2067FF57FAF41F21807C4F253
:1016400002073A684FF6084342F001023A603A68EE
:10165000CFF6FF7302F001020192019A2AF0030211
:1016600072440F25D75804F00C06B540AF43009DD7
:1016700005FA06F63743D7504E6840F20C45F202A1
:10168000DEF8082054BF22EA090242EA0902C4F245
:101690000105CEF808202A68B70254BF22EA0902E1
:1016A00042EA09022A60DEF80420B70354BF22EAA6
:1016B000090242EA0902CEF804200F23DEF80020D6
:1016C000F70354BF22EA090242EA0902CEF80020D9
:1016D00032E700BF02B0BDE8F08F0000002A08BF6B
:1016E000090401617047000040F2C850C2F20000D6
:1016F0000068704740F2000040F2C851C2F200009A
:10170000C2F2000100780A681044086070470000C7
:1017100080B542F20000C4F20200016841F01001FD
:101720000160032000F08CF8002000F005F800F0C4
:1017300027F8002080BD000070B540F20006C2F21C
:10174000000640F208013278C2F200014FF47A73C9
:101750000968B3FBF2F20446B1FBF2F1084600F06F
:1017600089FB0F2C4FF0010508D838B94FF0FF3036
:1017700021460022002500F037F87460284670BD2D
:1017800082B041F21800C4F202000168022241F066
:1017900001010160016801F00101019101994168B5
:1017A00041F080514160406800F080500090009806
:1017B0000420C4F20100016862F31A61016002B002
:1017C00070470000002848BF704700F01F01012249
:1017D00002FA01F11C2202EAD0004EF20012CEF20F
:1017E000000281507047000010B54EF60C5CCEF23E
:1017F000000CDCF80030C3F3022E8EF00704042C3A
:1018000028BF0424BEF103034FF0FF3E0EFA04F498
:1018100038BF0023A14399400EFA03F39A431143C2
:1018200000F00F0200F160430901043A03F564433C
:101830006244002848BF02F10C03197010BD00007B
:101840004EF60C51CEF200010A684FF6FF031A4023
:1018500060F30A2242F0806040F0FD70086070473B
:10186000002804BF012070472DE9F04381B042F207
:101870000008C4F202080446D8F800000D4600F043
:10188000070088420CD2D8F8000020F00700284357
:10189000C8F80000D8F8000000F00700A8426CD19A
:1018A000206841F204098107C4F2020917D54107F3
:1018B00005D5D9F8001041F4E061C9F8001001071E
:1018C00005D5D9F8001041F46051C9F80010D9F8D5
:1018D0000010A26821F0F0011143C9F80010C00700
:1018E00042D1D8F8000000F00700A8420CD9D8F87F
:1018F000000020F007002843C8F80000D8F80000D6
:1019000000F00700A84238D12068410707D5D9F870
:101910000010E26821F4E0611143C9F800100007EB
:1019200008D5D9F80000216920F4605040EAC100D0
:10193000C9F80000D9F8002002F00C00082841F294
:101940000020C0F27A0051D145F2B423C2F38341A2
:10195000C0F60003595CD2033CD440F60010C0F23C
:101960003D00484342E000BF606802280AD00128D9
:101970002AD159F8041C890308D4012001B0BDE81C
:10198000F08300BF59F8041C8901F6D5D9F800107E
:1019900021F003010843C9F80000FFF7A5FE064641
:1019A00041F28837D9F80000616800F00C00B0EB14
:1019B000810F96D0FFF798FE801BB842F2D9032022
:1019C00001B0BDE8F08300BF59F8041C8907D4D5E5
:1019D000DCE700BFD9F8002045F2B223C2F3404251
:1019E000C0F600039A5C4843B0FBF2F0D9F800104F
:1019F00045F29A22C1F30311C0F60002515C40F295
:101A0000080220FA01F140F20400C2F2000000686E
:101A1000C2F200021160FFF78FFE002001B0BDE8A6
:101A2000F083000040F2080041F20401C2F200001D
:101A3000C4F202010068096845F2AA22C1F302213A
:101A4000C0F60002515CC8407047000040F2080038
:101A500041F20401C2F20000C4F202010068096808
:101A600045F2AA22C1F3C221C0F60002515CC8406F
:101A700070470000002804BF012070472DE9F041A5
:101A800082B00446007841F20006C007C4F20206A4
:101A90000CD0706800F00C00042840F081803068A1
:101AA000800303D56068002800F04E81207880070D
:101AB0001BD5706810F00C0F09D0706800F00C0096
:101AC000082840F08B807068C00300F18780306880
:101AD000800703D52069012840F0368130686169AC
:101AE00020F0F80040EAC10030602078000713D4ED
:101AF000207840072CD4E569002D00F02081706823
:101B000000F00C00082840F0AF80012D40F00C815F
:101B1000012002B0BDE8F081A069002800F08C80AF
:101B20000020C4F242200121C0F88014FFF7DCFD40
:101B3000054600BF706A800700F1BA80FFF7D4FD48
:101B4000401B0228F6D9032002B0BDE8F08100BF97
:101B5000F0695FEAC00808D4F06940F08050F06195
:101B6000F06900F080500090009847F20007C4F23E
:101B700000073868C0054DD4386840F4807038607C
:101B8000FFF7B2FD054600BF3868C00542D4FFF735
:101B9000ABFD401B6428F7D9032002B0BDE8F081FB
:101BA000706800F00C00082803D17068C0033FF58E
:101BB00076AF6068002800F00981B0F5A02F00F032
:101BC0001D81B0F5803F00F01D81306820F4803029
:101BD0003060306820F4802017E100BF20690028C1
:101BE00040F20000C4F2422000F08C80012101602C
:101BF000FFF77AFD054600BF306880073FF56EAFFE
:101C0000FFF772FD401B0228F6D9032002B0BDE8A1
:101C1000F08100BFE068002800F09A80052800F0FD
:101C2000B180012800F0B280306A20F001003062FB
:101C3000306A20F00400ACE00020C4F24220002111
:101C4000C0F88014FFF750FD054600BF706A80079A
:101C50007FF54EAFFFF748FD401B0228F6D9032061
:101C600002B0BDE8F08100BF0027C4F24227002087
:101C70003866FFF739FD022D05460DD13068800129
:101C800040F1D680FFF730FD401B02284FF00300E3
:101C9000F4D902B0BDE8F081306880014FD5FFF77C
:101CA00023FD401B02284FF00300F5D9F1E700BFE8
:101CB00040F20800C2F20000006844F6D351C1F2BD
:101CC0006201A0FB0101480A019000BF00BF01981A
:101CD000411E002801913FF40BAF00BF0198411E47
:101CE000002801913FF404AF00BF0198411E002875
:101CF00001913FF4FDAE00BF0198411E0028019103
:101D0000E4D1F5E600210160FFF7EEFC054600BFD7
:101D1000306880077FF5E9AEFFF7E6FC401B02283C
:101D20004FF00300F4D9B4E77068216A00F4803200
:101D30008A4209D1616A00F47010884204D10020FF
:101D400002B0BDE8F08100BF012002B0BDE8F08123
:101D5000306A20F001003062306A20F00400306206
:101D6000FFF7C2FC054641F2883700BF306A8007A2
:101D700022D5FFF7B9FC401BB8424FF00300F5D95C
:101D800087E700BF306A40F004003062306A40F0FC
:101D900001003062FFF7A8FC054641F2883700BF1A
:101DA000306A800708D4FFF79FFC401BB842F7D980
:101DB000032002B0BDE8F081B8F1000F3FF59BAE03
:101DC000F06920F08050F06195E600BF306820F4A3
:101DD00080303060306820F480203060FFF784FC71
:101DE000054600BF306880037FF560AEFFF77CFCDE
:101DF000401B64284FF00300F4D94AE7306840F4F0
:101E000080203060306840F480303060FFF76CFC38
:101E1000054600BF306880033FF548AEFFF764FC1D
:101E2000401B6428F6D9032002B0BDE8F08100BF52
:101E3000206AB0F5803F05D17168A26821F40031B5
:101E4000114371607168626A21F47411114308438F
:101E5000706001203866FFF747FC04463068800157
:101E60003FF56DAFFFF740FC001B02284FF0030069
:101E7000F4D90EE7411E0020B0EB116F1CBF01200A
:101E800070474EF21002CEF2000251604EF623511E
:101E9000CEF20001F0230B700721906011607047B3
:101EA000704700007047000090F83C20012A04BFF2
:101EB00002207047B0B501F108053CCDD1E900CE54
:101EC00023F47C5322F470521A432EF4F0431A4345
:101ED0002CF4E0431A4324F4C0431A432A43C9694B
:101EE00022F48042036811435964002180F83C10B9
:101EF000BDE8B0400846704790F83C20012A4FF0FA
:101F0000020242D010B580F83D200268D2F804E009
:101F1000D2F808C00C682EF07003234340F6FF345B
:101F2000C4F20004A242536010DCB2F1804F1FD013
:101F300040F20043C4F200039A4219D040F6000375
:101F4000C4F200039A4213D017E000BF40F60043EA
:101F5000C4F200039A420BD043F20043C4F20103DF
:101F60009A4205D042F60043C4F201039A4204D1DA
:101F700049682CF08003194391600121002280F808
:101F80003D1080F83C20BDE810401046704700002E
:101F9000002804BF0120704710B5044690F83D00AA
:101FA00028B9002084F83C00204600F01FF80220E9
:101FB00084F83D002068211D02F0EAFD012084F82C
:101FC000460084F83E0084F83F0084F8400084F81E
:101FD000410084F8420084F8430084F8440084F807
:101FE000450084F83D00002010BD000080B584B09D
:101FF000006841F20041C4F2000188421AD043F265
:102000000041C4F2010188422CD042F60041C4F2E2
:102010000101884233D141F21800C4F20200016884
:1020200041F400610160006800F4006003900398CF
:1020300004B080BD41F21800C4F2020041680022E1
:1020400041F0200141604068022100F02000029030
:1020500002983720FFF7C8FB372004B0BDE8804066
:10206000FFF7B0BB41F21800C4F20200016841F46E
:1020700000510160006800F400500190019804B024
:1020800080BD000090F83D1001291CBF0120704761
:10209000022180F83D10006840F6FF32C168C4F2AA
:1020A0000002904241F00101C1600FDCB0F1804FAD
:1020B0001ED040F20041C4F20001884218D040F620
:1020C0000001C4F20001884212D018E040F600413D
:1020D000C4F2000188420BD043F20041C4F2010176
:1020E000884205D042F60041C4F20101884206D17F
:1020F000816801F00701062904BF002070470168CC
:1021000041F00101016000207047000090F83C2080
:10211000012A4FF0020200F0C58080B580F83D2012
:10212000D0F800C04FF67772DCF8083023EA0202DC
:10213000CCF808200B684F2B28DC1F2B44DD202B0C
:1021400045D0302B43D0402B40F0AE80D1F804E096
:10215000C968DCF82030DCF8202022F00102CCF83D
:102160002020DCF8182022F0F00242EA011123F0CE
:102170000A0242EA0E02CCF81810CCF82020DCF853
:10218000081041F0470121F0300180E06F2B27DD7E
:10219000B3F5005F48D0B3F5805F7AD0702B40F084
:1021A0008380D1E901E3C968DCF8082043EA0E0323
:1021B00022F47F4243EA01211143CCF80810DCF8F5
:1021C000081041F0770162E00BB1102B6CD1DCF804
:1021D000081021F07001194341F0070157E000BFDA
:1021E000502B35D0602B5FD1D1F804E0C968DCF802
:1021F0002030DCF8202022F01002CCF82020DCF87F
:10220000182022F4704242EA013123F0A00242EA8F
:102210000E12CCF81810CCF82020DCF8081041F091
:10222000670121F0100132E0D1E901E3C968DCF86F
:10223000082043EA0E0322F47F4243EA01211143BE
:10224000CCF80810DCF8081041F480411FE000BF12
:10225000D1F804E0C968DCF82030DCF8202022F056
:102260000102CCF82020DCF8182022F0F00242EA2B
:10227000011123F00A0242EA0E02CCF81810CCF841
:102280002020DCF8081041F0570121F02001CCF8A3
:1022900008100022012180F83D10002180F83C1038
:1022A000BDE88040104670470122F3E7002804BFD4
:1022B000012070472DE9F047044690F83D000D4697
:1022C00028B9002084F83C00204600F049F802209C
:1022D00084F83D00206844F20702816891438160E0
:1022E000211D02F055FC20684FF6FF788168826955
:1022F000D0F820C0D5E9003ED5E9026A43EA0109D9
:10230000AB6922EA080246EA03234FF6FC46B343D0
:10231000D5E9076742EA0A0229691A4342EA062216
:1023200042EA01112CF022026B6942EA0E0241EAF4
:10233000073142EA0312C0F808908161026201206D
:1023400084F8460084F83E0084F83F0084F8420098
:1023500084F8430084F83D000020BDE8F0870000C9
:1023600070B586B0006800F14041800540EA9120D8
:10237000002103280591CDE90311029100F2BA80F2
:10238000DFE800F0024A629641F21800C4F202004F
:10239000416840F6000441F0010141604168C4F227
:1023A000010401F0010101910199016802AD41F0C0
:1023B000040101600168002601F004010191019906
:1023C000016841F0080101600068294600F008003A
:1023D000019001984FF4004002902046CDE9036639
:1023E000FFF782F80820CDE9020604F5806029464F
:1023F0000496FFF779F80420C4F2010001684FF653
:10240000FF42CFF6FF02114041F0E06141F48071DC
:10241000016006B070BD00BF41F21800C4F20200B6
:10242000416841F002014160416801F002010191FF
:102430000199016841F004010160006800F00400A6
:1024400001900198C0204AE041F21800C4F2020055
:10245000416841F004014160416801F004010191CB
:102460000199016841F020010160006802A900F0B3
:102470002000019001984FF4405002900020CDE9D7
:10248000030040F60000C4F2010000F54060FFF7D1
:102490002BF80420C4F2010040F200120168C0F2DF
:1024A000007202F570621143016006B070BD00BF9A
:1024B00041F21800C4F20200416841F00801416095
:1024C000416801F0080101910199016841F004019E
:1024D0000160006800F00400019001980320029060
:1024E00000200390049040F60000C4F2010002A90D
:1024F000FEF7FAFF06B070BD80B590F83E2090F868
:102500003F3090F842E090F843C004290AD0B9B9AE
:10251000012A4FF0010208BFBEF1010F34D010466E
:1025200080BD00BF012B4FF0010208BFBCF1010FBD
:10253000F5D1022180F83F1080F8431000681EE0BA
:10254000012A4FF0010208BF012BE8D1BEF1010FB3
:10255000E5D1BCF1010FE2D1022280F83E2080F8E3
:102560003F2080F8422080F8432091B10068016A42
:1025700021F001010162016A41F0010101621021B3
:102580006FF0100209E000BF022180F83E1080F8D1
:102590004210006801216FF00102036A1A400262D2
:1025A000026A114301620168002241F001010160E9
:1025B000104680BD7047000070B504460068C568CD
:1025C0000669B10716D515F0020113D06FF00201AC
:1025D0000161012121778069800703D02046FFF740
:1025E000E9FF05E0204600F08FF8204600F0F4F9FE
:1025F00000202077700719D515F0040016D0206848
:102600006FF00401016102212177806910F4407F9D
:1026100004D02046FFF7CEFF06E000BF204600F0C2
:1026200073F8204600F0D8F900202077300717D53E
:1026300015F0080014D020686FF008010161042132
:102640002177C069800703D02046FFF7B3FF05E07C
:10265000204600F059F8204600F0BEF9002020770F
:10266000F00619D515F0100016D020686FF0100193
:10267000016108212177C06910F4407F04D0204611
:10268000FFF798FF06E000BF204600F03DF8204627
:1026900000F0A2F900202077F00718BF15F0010024
:1026A00002D1300609D412E020686FF00101016107
:1026B000204600F003FA300609D515F0800006D058
:1026C00020686FF0800101612046FFF7E9FB70068A
:1026D00009D515F0400006D020686FF04001016177
:1026E000204600F04BFBB00658BF70BD15F020002F
:1026F00008D021686FF0200220460A61BDE87040D2
:10270000FFF7D0BB70BD00007047000090F83C3070
:10271000012B04BF022070474FEAB202032A00F2E5
:1027200025812DE9F041DFE802F0034B95DF00BF82
:10273000036843F200461D6A1A6A25F0020522F07A
:1027400001021A621A46D3F804C052F8188F8F6833
:10275000D1F800E0C4F20106B34245EA070505D00E
:1027600042F60047C4F20107BB4205D1CF6825F00D
:102770000C0527F004073D43B34205D042F600465E
:10278000C4F20106B34206D1D1E905672CF44074C6
:10279000264346EA070C28F0730444EA0E07C3F800
:1027A00004C09F614F6809695F631D629F6947F0BC
:1027B00008079F619F6927F004079F61CAE000BF77
:1027C000036843F200461D6A1A6A25F0200522F0CC
:1027D00010021A621A46D3F804C052F8188F8F6894
:1027E000D1F800E0C4F20106B34245EA071505D06E
:1027F00042F60047C4F20107BB4207D1CF686FF031
:10280000400425F0C00504EA07142543B34205D06F
:1028100042F60044C4F20104A34206D1D1E90546C0
:102820002CF44067264347EA860C28F4E64444EA41
:102830000E27C3F804C09F614F6809699F631D623A
:102840009F6947F400679F619F6927F480679F61D4
:102850007FE000BF036843F200461D6A1A6A25F450
:10286000007522F480721A621A46D3F804C052F836
:102870001CEF8F68D1F80080C4F20106B34245EA2C
:10288000072505D042F60047C4F20107BB4208D134
:10289000CF6840F2FF443F0225F4406527EA040474
:1028A0002543B34205D042F60044C4F20104A342DA
:1028B00006D1D1E905462CF44057264347EA061CC9
:1028C0002EF0730747EA0807C3F804C0DF614F68BA
:1028D0000969DF631D62DF6947F00807DF61DF69AF
:1028E00027F00407DF6135E0036843F20047D3F8BF
:1028F00020C01A6AC4F2010722F480521A621A46F2
:102900005C6852F81C5FD1F800E08E68BB4205D0CD
:1029100042F60047C4F20107BB4204D14F6924F4D8
:10292000804444EA87142CF4005747EA063725F41C
:10293000E64646EA0E265C60DE614E6809691E6462
:102940001F62DF6947F40067DF61DF6927F4806792
:10295000DF6109021368194311600021BDE8F041ED
:10296000002280F83C200846704700BF0121002269
:1029700080F83C2008467047002804BF01207047BB
:1029800010B5044690F83D0028B9002084F83C00BA
:10299000204600F01FF8022084F83D002068211D29
:1029A00002F0F6F8012084F8460084F83E0084F82E
:1029B0003F0084F8400084F8410084F8420084F825
:1029C000430084F8440084F8450084F83D0000206A
:1029D00010BD0000704700007047000041B1082999
:1029E00010D0042914BF00F1410200F13F020BE0B6
:1029F00090F83E20012A1CBF01207047022280F877
:102A00003E2013E000F140021278012A1CBF012091
:102A100070470222082907D0042914BF80F84120FA
:102A200080F83F2002E000BF80F84020006801F0FD
:102A30001F010122036A02FA01F123EA0102026284
:102A4000026A114340F6FF32C4F200029042016272
:102A50000EDCB0F1804F25D040F20041C4F20001FD
:102A600088421FD040F60001C4F2000118E000BF08
:102A700040F60041C4F20001884213D043F2004204
:102A8000C4F2010242F600419042C4F2010101D0B9
:102A900088420CD1436C904243F40043436401D01C
:102AA000884204D1816801F00701062903D001683A
:102AB00041F00101016000207047000040F2003148
:102AC000C2F20001884218BF70472DE9F04F81B073
:102AD00040F23008C2F20008B8F8020040F268473D
:102AE000013081B20A29C2F20007A8F80200C0F042
:102AF000A280B8694FF000090668A8F802903C6A05
:102B0000706A40F6B83B80B241F2707A584588BF8F
:102B1000AAEB0000FDF7B4FD0021C4F27021FDF71F
:102B20008DFBB98B05460846FDF7B3FD01462846E7
:102B3000FDF7B6FB21460546B862C6F82490FDF7BE
:102B400075FD002808BF3D62786CFC6C0668706AF1
:102B500080B2584588BFAAEB0000FDF791FD002127
:102B6000C4F27021FDF76AFBB7F848100546084625
:102B7000FDF78FFD01462846FDF792FB21460546ED
:102B80007865C6F82490FDF751FD002808BFFD6464
:102B9000386FBC6F066840F6B83A706A41F27079D7
:102BA00080B2504588BFA9EB0000FDF769FD002108
:102BB000C4F27021FDF742FBB7F8741005460846D1
:102BC000FDF767FD01462846FDF76AFB4FF0000B55
:102BD00021460546C7F88000C6F824B0FDF726FD5B
:102BE000002808BFBD67D7F89C00D7F8A440066846
:102BF000706A80B2504588BFA9EB0000FDF740FD28
:102C00000021C4F27021FDF719FBB7F8A0100546AA
:102C10000846FDF73EFD01462846FDF741FB2146EB
:102C20000546C7F8AC00C6F824B0FDF7FFFC002845
:102C300008BFC7F8A45098F80000002800F0998059
:102C400040F21854B96AC2F20004204601F0BAFEFC
:102C50007968082908D004290CD089B9FDF737FD17
:102C600039680968486310E0FDF731FD3968096883
:102C7000C8630AE0FDF72BFD39680968886304E042
:102C8000FDF725FD396809680864796D04F12C00A9
:102C900001F098FE396B49B104290DD0082911D1F2
:102CA000FDF715FDF96A0968C86310E0FDF70FFD2F
:102CB000F96A096848630AE0FDF709FDF96A0968DD
:102CC000886304E0FDF703FDF96A09680864D7F832
:102CD000801004F1580001F075FEF96D51B104291E
:102CE0000ED0082912D1FDF7F2FCB96D0968C8634E
:102CF00011E000BFFDF7EBFCB96D096848630AE01D
:102D0000FDF7E5FCB96D0968886304E0FDF7DFFCB9
:102D1000B96D09680864D7F8AC1004F1840001F0BB
:102D200051FED7F8881059B1042911D0082917D1BC
:102D3000FDF7CDFCD7F884100968C86316E000BF22
:102D4000FDF7C5FCD7F88410096848630EE000BFA2
:102D5000FDF7BDFCD7F884100968886306E000BF62
:102D6000FDF7B5FCD7F8841009680864022088F8DC
:102D7000000001B0BDE8F04F704700007047000050
:102D800070B582B0044690F8420020280AD113465C
:102D90000A4600294FF0010018BF002B06D102B0EF
:102DA00070BD00BF022002B070BD00BF20630025CF
:102DB00022206563A262A385656484F842002168CD
:102DC000E06B44F6016C44F6617E44F68546C0F63D
:102DD000000CC0F6000EC0F600060431C0E90ACEB1
:102DE000C0E90C65FEF71CFB0195206801680191A4
:102DF000406801900198206930B300BF206850E816
:102E0000030F216840F4807041E80302E2B12068BA
:102E100050E8030F216840F4807041E803029AB142
:102E2000206850E8030F216840F4807041E80302F5
:102E300052B1206850E8030F216840F4807041E8E7
:102E40000302002ADAD100BF206850E8050F21688C
:102E500040F0010041E80502BAB3206850E8050FD0
:102E6000216840F0010041E8050272B3206850E893
:102E7000050F216840F0010041E805022AB32068EF
:102E800050E8050F216840F0010041E80502002AE2
:102E9000DAD11AE0206850E8050F216840F04000C0
:102EA00041E80502DAB1206850E8050F216840F0DA
:102EB000400041E8050292B1206850E8050F216802
:102EC00040F0400041E805024AB1206850E8050F93
:102ED000216840F0400041E80502002ADAD1206B69
:102EE00001282FD1002000902068016800914068DF
:102EF00000900098206850E8030F216840F010000F
:102F000041E80302DAB1206850E8030F216840F07D
:102F1000100041E8030292B1206850E8030F2168D5
:102F200040F0100041E803024AB1206850E8030F66
:102F3000216840F0100041E80302002ADAD10020A5
:102F400002B070BD012002B070BD000040F220420E
:102F5000C2F20002904218BF704770B540F23804C8
:102F6000C2F200040D4604F1300604F110013046AF
:102F70002A46FDF7F9F840F2D830C2F20000314697
:102F80002A4600F067FE207CAA2818D1E07D55284B
:102F900015D1617CD4F81200A27D217060600729F0
:102FA000227224BF0021217020F000404FF07C519C
:102FB0004FF07C55FDF73AFB002808BF6560002004
:102FC00044F8100FC4E90100C4E90300C4E9050096
:102FD000E06140F2D830C2F200002146202200F029
:102FE00085FD40F22040C2F2000021462022FFF77A
:102FF000C7FE40F25410C2F200000068016821F0E0
:1030000004010160BDE870407047000010B504463F
:103010000068416994F84120212A56D111F08001BD
:1030200053D000BF206850E8050F216820F08000D1
:1030300041E80502DAB1206850E8050F216820F068
:10304000800041E8050292B1206850E8050F216830
:1030500020F0800041E805024AB1206850E8050FE1
:10306000216820F0800041E80502002ADAD1A06B37
:10307000002818BFFDF780FF206850E8030F216883
:1030800020F0C00041E80302DAB1206850E8030FE5
:10309000216820F0C00041E8030292B1206850E8A6
:1030A000030F216820F0C00041E803024AB1206804
:1030B00050E8030F216820F0C00041E80302002A15
:1030C000DAD1202084F841002068406994F8421049
:1030D000222940F0A78010F0400000F0A38000BF3C
:1030E000206850E8050F216820F0400041E8050203
:1030F000DAB1206850E8050F216820F0400041E86F
:10310000050292B1206850E8050F216820F04000C8
:1031100041E805024AB1206850E8050F216820F017
:10312000400041E80502002ADAD1E06B002818BF10
:10313000FDF722FF206850E8030F216820F490700B
:1031400041E80302BAB3206850E8030F216820F475
:10315000907041E8030272B3206850E8030F2168C1
:1031600020F4907041E803022AB3206850E8030F6E
:10317000216820F4907041E80302002ADAD11AE0B5
:10318000206850E8050F216820F0010041E80502A1
:10319000DAB1206850E8050F216820F0010041E80D
:1031A000050292B1206850E8050F216820F0010067
:1031B00041E805024AB1206850E8050F216820F077
:1031C000010041E80502002ADAD1206B012824D150
:1031D000206850E8030F216820F0100041E8030246
:1031E000DAB1206850E8030F216820F0100041E8B0
:1031F000030292B1206850E8030F216820F010000C
:1032000041E803024AB1206850E8030F216820F02A
:10321000100041E80302002ADAD1202084F842009D
:1032200000202063002010BD70470000B0B582B0C0
:10323000044600680168C368426901F02F05202D2B
:1032400003F0200506D12DB1204602B0BDE8B04004
:1032500001F0EEBE5FEA017C1EBF02F0010E03F436
:10326000907212EB0E0243D1226BCD0618D5012AC3
:1032700016D113F0100213D00021019101680191C1
:10328000416801910199406940063BD4A08DE18DD0
:10329000E28D002A18BF884240F0F28102B0B0BD32
:1032A0000A0640F1E78013F0800200F0E38094F812
:1032B00041102129F2D1A168B1F5805F03D12169C4
:1032C000002900F06382216A4A1C22620978416069
:1032D000E18C01390A04E184E0D1C16821F0800168
:1032E000C160C16841F04001C16002B0B0BD00BF23
:1032F000CA0718BF13F4807240F0D0804A0700F16B
:10330000D380D8E0E06B016849688AB2002AC5D052
:10331000A38D9A42C2D2E1858069202800F09E8068
:10332000206850E8030F216820F4807041E8030210
:10333000DAB1206850E8030F216820F4807041E87A
:10334000030292B1206850E8030F216820F48070D6
:1033500041E803024AB1206850E8030F216820F4D5
:10336000807041E80302002ADAD1206850E8050F96
:10337000216820F0010041E80502C2B3206850E84E
:10338000050F216820F0010041E805027AB32068AA
:1033900050E8050F216820F0010041E8050232B332
:1033A000206850E8050F216820F0010041E805027F
:1033B000002ADAD11BE000BF206850E8050F216821
:1033C00020F0400041E80502DAB1206850E8050F1E
:1033D000216820F0400041E8050292B1206850E8E1
:1033E000050F216820F0400041E805024AB120683D
:1033F00050E8050F216820F0400041E80502002A4E
:10340000DAD1202084F8420000202063206850E8B0
:10341000030F216820F0100041E80302DAB12068B0
:1034200050E8030F216820F0100041E8030292B138
:10343000206850E8030F216820F0100041E80302E3
:103440004AB1206850E8030F216820F0100041E8DD
:103450000302002ADAD1E06BFDF78EFD02206063E3
:10346000A08DE18D401A81B2204602B0BDE8B04087
:10347000FFF76CBD49067FF511AF13F040013FF433
:103480000DAFC16821F04001C1602021204684F8C1
:10349000411002B0BDE8B04000F038BC626C42F0B0
:1034A000010262644A0706D5BEF1000F03D0626CC8
:1034B00042F0020262648A0706D5BEF1000F03D013
:1034C000626C42F004026264BCF1000F06D55EEA51
:1034D000050203D0626C42F008026264626C002A4A
:1034E0003FF4DCAE890604D51DB1204601F0A0FDF5
:1034F00020684069616C00F0400001F0080140184C
:1035000000F0B680206850E8030F216820F4907026
:1035100041E80302BAB3206850E8030F216820F4A1
:10352000907041E8030272B3206850E8030F2168ED
:1035300020F4907041E803022AB3206850E8030F9A
:10354000216820F4907041E80302002ADAD11AE0E1
:10355000206850E8050F216820F0010041E80502CD
:10356000DAB1206850E8050F216820F0010041E839
:10357000050292B1206850E8050F216820F0010093
:1035800041E805024AB1206850E8050F216820F0A3
:10359000010041E80502002ADAD1206B012824D17C
:1035A000206850E8030F216820F0100041E8030272
:1035B000DAB1206850E8030F216820F0100041E8DC
:1035C000030292B1206850E8030F216820F0100038
:1035D00041E803024AB1206850E8030F216820F057
:1035E000100041E80302002ADAD1202084F84200CA
:1035F0000020206320684069400640F1C1802068B7
:1036000050E8050F216820F0400041E80502DAB1DA
:10361000206850E8050F216820F0400041E80502CD
:1036200092B1206850E8050F216820F0400041E881
:1036300005024AB1206850E8050F216820F04000DB
:1036400041E80502002ADAD1E06B002800F09880FA
:1036500044F67941C0F600014163FDF7B1FC002852
:103660003FF41CAEE06B416B02B0BDE8B0400847D0
:103670002046FFF7D9FD0020606402B0B0BD00BF56
:10368000401A00BF216851E8031F226821F490719D
:1036900042E80313BBB3216851E8031F226821F4F9
:1036A000907142E8031373B3216851E8031F226845
:1036B00021F4907142E803132BB3216851E8031FF2
:1036C000226821F4907142E80313002BDAD11AE04A
:1036D000216851E8051F226821F0010142E8051325
:1036E000DBB1216851E8051F226821F0010142E8A1
:1036F000051393B1216851E8051F226821F00101EB
:1037000042E805134BB1216851E8051F226821F0FA
:10371000010142E80513002BDAD1202184F8421080
:1037200000212163216851E8031F226821F0100164
:1037300042E80313DBB1216851E8031F226821F03E
:10374000100142E8031393B1216851E8031F226876
:1037500021F0100142E803134BB1216851E8031F27
:10376000226821F0100142E80313002BDAD1022273
:1037700081B22046626302B0BDE8B040FFF7E6BB0D
:10378000204602B0BDE8B040FFF74EBD216A31F8D7
:10379000022B6FF35F224260216299E5002804BF8B
:1037A0000120704710B5044690F8410028B9002068
:1037B00084F84000204600F063F8242084F841009B
:1037C0002068D4E90212C36823F40053C36003697C
:1037D00023F440531A430261D4E904231143C2681D
:1037E000194341F20C639A431143C1604169A269D4
:1037F00021F44071114343F60002C4F201029042E9
:10380000416103D0FEF70EF902E000BFFEF71EF99A
:10381000D4E90023192148439900B0FBF1F048F2A4
:103820001F5CC5F2EB1CA0FB0C314FF69C734909E1
:10383000C0F6FF7301FB0300322303EB0010A0FB73
:103840000C03F02000EA531000EB0110C3F3431106
:10385000084490601069202120F490401061506964
:1038600020F02A005061D06840F40050D060002061
:10387000606484F8411084F84210606310BD000059
:103880002DE9F04186B00446006844F20041C4F2DC
:103890000001002788420597CDE9037702975DD0A4
:1038A00044F60001C4F20001884200F0C78043F6EC
:1038B0000001C4F20101884240F0148141F2180075
:1038C000C4F20200016840F6000541F48041016045
:1038D0000168C4F2010501F4804101910199016878
:1038E00002AE41F0040101600068314600F00400BE
:1038F000019001984FF40070029002200390032081
:1039000005902846FDF7F0FD4FF4806002900027F7
:1039100028463146CDE90377FDF7E6FD3020C4F2B5
:10392000020040F288052830C2F200058021C5E976
:1039300000072846C5E90271C5E90477C5E906779D
:10394000FDF71EFD002818BFFDF710FBE5636C6254
:103950002520012100222524BFE000BF41F21800EC
:10396000C4F20200416802AE41F400314160416896
:1039700040F2300801F40031019101990168C4F26C
:10398000020841F0200101600068314600F020008B
:1039900001900198202002900220039003200590BE
:1039A00040F60000C4F2010000F540652846FDF72E
:1039B0009BFD4020CDE90207284631460497FDF7DC
:1039C00093FD0420C4F20100016840F2CC0541F0EF
:1039D000E06141F00801016008F13C00C2F200051D
:1039E0008026C5E900072846C5E90276C5E90477BF
:1039F000C5E90677FDF7C4FC002818BFFDF7B6FA45
:103A0000E5636C6240F2101508F15000C2F2000547
:103A10001021002285E847002846C5E90422C5E9AF
:103A20000622FDF7ADFC002818BFFDF79FFAA5633D
:103A30006C6226200021002226244EE041F218006C
:103A4000C4F20200416802AE41F480214160416845
:103A500001F4802101910199016841F008010160A0
:103A60000068314600F00800019001984FF4806032
:103A70000290022003900320059040F60000C4F25B
:103A8000010000F580652846FDF72EFD4FF400602B
:103A90000290002728463146CDE90377FDF724FD43
:103AA00040F254153020C2F20005C4F20200802119
:103AB000C5E900072846C5E90271C5E90477C5E9EB
:103AC0000677FDF75DFC002818BFFDF74FFAE563A8
:103AD0006C622720012100222724FDF785FE204665
:103AE000FDF770FE06B0BDE8F081000070B582B051
:103AF000044690F8420020280AD113460A460029BD
:103B00004FF0010018BF002B06D102B070BD00BFFE
:103B1000022002B070BD00BF002522202563A262F2
:103B2000A385656484F842002168E06B44F6016C6B
:103B300044F6617E44F68546C0F6000CC0F6000EE1
:103B4000C0F600060431C0E90ACEC0E90C65FDF7F5
:103B500067FC019520680168019140680190019817
:103B6000206928B3206850E8030F216840F4807072
:103B700041E80302E2B1206850E8030F216840F4F5
:103B8000807041E803029AB1206850E8030F216871
:103B900040F4807041E8030252B1206850E8030FFE
:103BA000216840F4807041E80302002ADAD100BFA6
:103BB000206850E8050F216840F0010041E8050247
:103BC000BAB3206850E8050F216840F0010041E8D1
:103BD000050272B3206850E8050F216840F001002B
:103BE00041E805022AB3206850E8050F216840F03B
:103BF000010041E80502002ADAD11AE0206850E805
:103C0000050F216840F0400041E80502DAB1206864
:103C100050E8050F216840F0400041E8050292B1EC
:103C2000206850E8050F216840F0400041E8050297
:103C30004AB1206850E8050F216840F0400041E893
:103C40000502002ADAD1002002B070BD70470000E2
:103C50007047000070B5044690F8410020281CBF52
:103C6000022070BD00294FF001004DD0002A1346FC
:103C700008BF70BD4FF0000C21202162A384E384B3
:103C8000C4F844C084F841002268A06B44F6797EF1
:103C900045F2290544F68546C0F6000EC0F600053B
:103CA000C0F600060432C0E90AE5C0E90C6CFDF775
:103CB000B7FB20686FF04001016000BF206850E84A
:103CC000050F216840F0800041E80502DAB1206864
:103CD00050E8050F216840F0800041E8050292B1EC
:103CE000206850E8050F216840F0800041E8050297
:103CF0004AB1206850E8050F216840F0800041E893
:103D00000502002ADAD1002070BD000070470000D3
:103D100070470000FEE7000080B582B041F2140059
:103D2000C4F202000168002241F001010160006854
:103D3000002100F00100019001980D20FDF754FDD5
:103D40000D20FDF73FFD0F2000210022FDF74CFD67
:103D50000F20FDF737FD102000210022FDF744FD64
:103D60001020FDF72FFD112000210022FDF73CFD62
:103D7000112002B0BDE88040FDF724BD2DE9F04FD1
:103D800085B041F21800C4F20200016840F6000656
:103D900041F0100101600168C4F2010601F0100158
:103DA000019101990168002241F00401016001685C
:103DB0003C2701F004010191019901684FF00008CE
:103DC00041F040010160016801F040010191019959
:103DD000016841F008010160016801F008010191EA
:103DE0000199016841F02001016000683C2100F068
:103DF0002000019001983046FDF770FC06F5406503
:103E000028464FF4406100224FF44069FDF766FCFC
:103E100006F58064204630210022FDF75FFC019703
:103E200001AF4FF0010B4FF0020A30463946CDE9A1
:103E300002B8CDF810A0FDF757FB28463946CDE96A
:103E4000019BCDE9038AFDF74FFB3020CDE9010B43
:103E500020463946CDE9038AFDF746FB05B0BDE8AB
:103E6000F08F000070B59CB041F20004C4F2010470
:103E700040F29810002104F5E052C2F200004723FE
:103E800040F2E7361691CDE914111191CDE90F11E9
:103E9000CDE90D11CDE90B11CDE90911CDE90711DE
:103EA000CDE90511CDE90311CDE90111C0E90023E8
:103EB000C0E90216C0E904118161FEF769F8002823
:103EC00018BFFDF753F84FF48050139040F298104C
:103ED000C2F2000013A9FEF719F9002818BFFDF778
:103EE00045F840F29810C2F20000FEF745FD0028A8
:103EF00018BFFDF73BF840F298100025C2F2000011
:103F000010A9CDE91055FDF7F7FF002818BFFDF700
:103F10002DF86020CDE9090540F29810C2F20000AA
:103F200009A90022CDE90B55CDE90D550F95FEF7F6
:103F3000EDFB002818BFFDF719F840F29810C2F207
:103F4000000009A90422FEF7E1FB002818BFFDF7D5
:103F50000DF840F29810C2F2000009A90822FEF7FD
:103F6000D5FB002818BFFDF701F840F29810C2F207
:103F7000000009A90C22FEF7C9FB002818BFFCF7B6
:103F8000F5FF40F298154FF40050C2F200050026EC
:103F9000069001A928460596CDE90366CDE901669C
:103FA0000896FDF781FF002818BFFCF7DFFF28689F
:103FB00043F20041C4F2010188421B96CDE9196623
:103FC000189629D042F60041C4F2010188423AD144
:103FD00041F21800C4F20200016841F040010160A2
:103FE000006818A900F04000179017984FF4D440CB
:103FF0001890022019901B9004F50060FDF774FAE8
:104000000420C4F20100016841F0E06141F0C00108
:1040100001601CB070BD00BF41F21800C4F2020084
:10402000016841F010010160006818A900F010005B
:10403000179017984FF470701890022019901B90E9
:104040002046FDF751FA1CB070BD000080B58CB061
:1040500040F2E0100021C2F200004FF0804241F235
:104060006F73C0E900210122CDE90011C0E90213FC
:1040700001618161CDE90321CDE90521CDE9071178
:10408000CDE909210B9103A9FEF710F9002818BF0B
:10409000FCF76CFF40F2E010C2F200006946FDF749
:1040A0002BFF002818BFFCF761FF0CB080BD00009B
:1040B00080B58CB040F2282040F200420021C2F2CC
:1040C0000000C4F2000241F26F73C0E90021012236
:1040D000CDE90011C0E9021301618161CDE903213D
:1040E000CDE90521CDE90711CDE909210B9103A9FE
:1040F000FEF7DCF8002818BFFCF738FF40F2282054
:10410000C2F200006946FDF7F7FE002818BFFCF771
:104110002DFF0CB080BD000080B58CB040F2702047
:1041200040F600020021C2F20000C4F2000241F297
:104130006F73C0E900210122CDE90011C0E902132B
:1041400001618161CDE90321CDE90521CDE90711A7
:10415000CDE909210B9103A9FEF7A8F8002818BFA3
:10416000FCF704FF40F27020C2F200006946FDF740
:10417000C3FE002818BFFCF7F9FE0CB080BD00009C
:1041800080B58CB040F2B82040F600420021C2F267
:104190000000C4F2000241F26F73C0E90021012265
:1041A000CDE90011C0E9021301618161CDE903216C
:1041B000CDE90521CDE90711CDE909210B9103A92D
:1041C000FEF774F8002818BFFCF7D0FE40F2B820C4
:1041D000C2F200006946FDF78FFE002818BFFCF709
:1041E000C5FE0CB080BD000080B582B040F200304A
:1041F00041F200420021C2F20000C4F2000240F28B
:10420000CF2342F20F7CCDE90011C0E90023C0E9C1
:10421000021C8161FDF7BCFE002818BFFCF7A6FE5A
:1042200040F20030C2F200006946FDF765FE00284A
:1042300018BFFCF79BFE02B080BD000070B59CB0BB
:1042400041F20004C4F2010440F24830002104F5B8
:104250001052C2F2000041F61F4340F2CF76169191
:10426000CDE914111191CDE90F11CDE90D11CDE971
:104270000B11CDE90911CDE90711CDE90511CDE902
:104280000311CDE90111C0E90023C0E90216C0E91C
:1042900004118161FDF77CFE002818BFFCF766FE63
:1042A0004FF48050139040F24830C2F2000013A93E
:1042B000FDF72CFF002818BFFCF758FE40F24830ED
:1042C000C2F20000FEF758FB002818BFFCF74EFEB4
:1042D00040F248300025C2F2000010A9CDE9105587
:1042E000FDF70AFE002818BFFCF740FE6020CDE96C
:1042F000090540F24830C2F2000009A90022CDE9C8
:104300000B55CDE90D550F95FEF700FA002818BFA3
:10431000FCF72CFE40F24830C2F2000009A904224A
:10432000FEF7F4F9002818BFFCF720FE40F24830F1
:10433000C2F2000009A90822FEF7E8F9002818BF18
:10434000FCF714FE40F24830C2F2000009A90C222A
:10435000FEF7DCF9002818BFFCF708FE40F24835EC
:104360004FF40050C2F200050026069001A928462D
:104370000596CDE90366CDE901660896FDF794FD43
:10438000002818BFFCF7F2FD286843F20041C4F290
:10439000010188421B96CDE91966189628D042F68D
:1043A0000041C4F20101884239D141F21800C4F23F
:1043B0000200016841F040010160006818A900F0A6
:1043C0004000179017984FF4D4401890022019908D
:1043D0001B9004F50060FDF787F80420C4F201008B
:1043E000016841F0E06141F0C00101601CB070BDA6
:1043F00041F21800C4F20200016841F010010160AE
:10440000006818A900F01000179017984FF470700A
:104410001890022019901B902046FDF765F81CB0FB
:1044200070BD000080B540F2903043F60001C2F24A
:104430000000C4F2010100234FF00C0C4FF4E132F4
:1044400080E80E00C0E90333C0E905C3C361FFF78C
:10445000A5F9002808BF80BDBDE88040FCF786BDF7
:1044600080B540F2D83044F20041C2F20000C4F2FC
:10447000000100234FF00C0C4FF4E13280E80E00F5
:10448000C0E90333C0E905C3C361FFF787F900281A
:1044900008BF80BDBDE88040FCF768BD80B540F234
:1044A000204044F60001C2F20000C4F200010023E3
:1044B0004FF00C0C4FF4E13280E80E00C0E90333FA
:1044C000C0E905C3C361FFF769F9002808BF80BDD3
:1044D000BDE88040FCF74ABD70B582B040F2185587
:1044E0004CF6CD444CF20006C2F200054CF28F218E
:1044F00041F27B424CF6CD43C3F6CC54C4F279462C
:10450000C3F67541C3F6AE52C3F64C532846CDE907
:10451000006400F0B3FA05F12C0021462246234640
:10452000CDE9006400F0AAFA05F1580021462246C0
:104530002346CDE9006400F0A1FA05F1840021468C
:1045400022462346CDE9006400F098FA02B070BD1F
:10455000FEE7000040F23801C2F20001D1E9002379
:104560008968C0E9002381607047000080B5FFF7CB
:10457000B3FFFCF773FA00F0C3FABDE8804000F027
:1045800055B8000010B540F23801C2F200010C46E7
:1045900054F8100F082241F8300F51F81C0C4860F5
:1045A00040F2D830C2F20000FFF754FB40F29030E6
:1045B000C2F2000021462022BDE81040FFF796BA63
:1045C000B0B540F23804C2F20004207CAA2818D109
:1045D000E07D552815D1617CD4F81200A27D2170B0
:1045E00060600729227224BF0021217020F0004062
:1045F0004FF07C514FF07C55FCF718F8002808BFAD
:104600006560002344F8103F40F2D830C4E901331C
:10461000C4E90333C4E90533C2F200002146202275
:10462000E361BDE8B040FFF761BA000070B540F249
:104630003800C2F2000040F2D83500F11004C2F296
:104640000005284621462022FFF750FA40F2903616
:10465000C2F20006304621462022FFF747FA40F218
:104660002040C2F2000021462022FEF789FB40F2E2
:104670005410C2F200000068016821F004010160DA
:104680002868C16841F01001C1603068C16841F01C
:104690001001C16070BD00002DE9F04F87B004A883
:1046A000FFF758FF9DF81000062805D8DFE800F056
:1046B000040A10161AC6CC000120FCF783FB4FF049
:1046C000000A12E0DDF814904FF0000A0FE000BF7E
:1046D00005984FF0000A80F0004908E0DDF814A0CA
:1046E00003E000BF059880F0004A4FF000094FF04A
:1046F00000089DF818000128039000F0B7800028FA
:1047000040F0948040F21003C2F2000340F2000B2C
:1047100093E83300C3F6E07B00225B46CDF804A0AB
:10472000FBF7A3FE06460F462046294600225B46BD
:10473000FBF79BFE02460B4630463946FBF7EEFD83
:10474000FBF7ECFF054648465146FBF771FD044672
:10475000029088F000402946FBF770FD2146834611
:10476000FBF714FDFBF7C7FF064640F21000C2F24C
:1047700000004269006942F2FA130C46C4F21903C0
:1047800011460022FBF771FE07468A463046214655
:104790003A465346FBF7DBFE0023C4F24E030022E9
:1047A000FBF763FEFBF7BAFF044601984946FBF7A7
:1047B000EDFC064640462946FBF740FD3146814662
:1047C000FBF7E4FCFBF797FF3A465346FBF7BFFEC7
:1047D00000230022C4F24E03FBF747FEFBF79EFFC7
:1047E000054658463146FBF7D1FCFBF784FF3A46B5
:1047F0005346FBF7ACFE0026C4F24E0600223346B9
:10480000FBF733FEFBF78AFF029980464846FBF729
:10481000BDFCFBF770FF3A465346FBF798FE0022BB
:104820003346FBF722FEFBF779FF43E00024002527
:104830004FF000084FF0000A3DE000BF059840F639
:10484000D071C4F2490104E0059840F6D071CCF271
:104850004901FBF7F3FC80464FF0000A4FF00009D6
:104860009DF81800012803907FF449AF4846FBF7F4
:1048700042FF044640F21000C2F20000C2698069A3
:1048800042F2FA130D46C4F2190311460022FBF757
:10489000ECFD02460B4620462946FBF758FE002356
:1048A000C4F24E030022FBF7E0FDFBF737FF04469E
:1048B000054680468246029424F0004420460021AA
:1048C000FBF7D0FE25F00046002808BF044630461E
:1048D00021460195FBF7C6FE054600281CBF0125B1
:1048E000344628F0004630462146FBF7BBFE2746FB
:1048F0002AF00049002818BF374648463946FBF7DA
:10490000B1FE834630462146FBF7ACFE00283C460C
:104910004846394618BF0225BBF1000F18BF4C4668
:10492000FBF7A0FE002840F26840C2F200004FF002
:104930002C0118BF032505FB0100056A2046294606
:10494000FBF774FE10BB28460021FBF76FFEE8B9A9
:1049500028462146FBF7A4FC02990446FBF76EFCAF
:10496000019905462046FBF769FC0646204641466C
:10497000FBF764FC804620465146FBF75FFC82460D
:104980000398012807D000F0AFF806E0DDE90165E3
:1049900003980128F7D100F0E3F800202946FBF73F
:1049A000B9FF01203146FBF7B5FF02204146FBF776
:1049B000B1FF03205146FBF7ADFF07B0BDE8F08F14
:1049C000FEE700002DE9F047002853D004460161BE
:1049D000C068D4E90776D4F82880FBF729FC414663
:1049E00082466061FBF72AFC3946FBF7CFFB314674
:1049F0000746E061FBF736FE30B986F000463846E0
:104A00003146FBF721FE08B93746E661D4E900607C
:104A1000D4F80890A5693946FBF710FC07463046E4
:104A20005146FBF70BFC3946FBF7B0FB06465046F8
:104A30002946FBF7FDFB01464846FBF7FFFB4146D5
:104A4000FBF72EFC01463046FBF7A0FB666A0746E3
:104A50003146FBF707FE38B938460021FBF7F4FD75
:104A60003E46002808BF00263046C4F818A0BDE81E
:104A7000F08700BF0020BDE8F0870000002808BFD5
:104A800070472DE9F0410446DDE90608154684E843
:104A90000E006062FBF72FFE49F69A1249F6991351
:104AA000C9F69912C3F6E973FBF7DFFC0646284600
:104AB0000F46FBF720FE02460B4630463946FBF711
:104AC00046FDFBF72BFE0021C4F82880C4E9051140
:104AD000C4E90710E160BDE8F0417047002818BF45
:104AE000C16070477047000040F24830C2F20000D9
:104AF00001680F2200204A638A63CA630A64704710
:104B000080B540F24830C2F200000021FDF766FF98
:104B1000002818BFFCF72AFA40F24830C2F2000021
:104B20000421FDF75BFF002818BFFCF71FFA40F2D5
:104B30004830C2F200000821FDF750FF002818BFDE
:104B4000FCF714FA40F24830C2F200000C21FDF7E5
:104B500045FF002808BF80BDBDE88040FCF706BACD
:104B600040F24830C2F200000168052200204A638A
:104B70008A63CA630A64704770470000FCF7BABDD5
:104B80007047000040F20030C2F20000FDF714BD93
:104B900010B540F6FF3E0368C4F2000E43F2004C2D
:104BA0007045C4F2010C21DCB0F1804F2CD040F2F2
:104BB0000042C4F20002904226D040F60002C4F245
:104BC0000002904220D0704524DCB0F1804F2FD0FD
:104BD00040F20042C4F20002904229D040F60002A6
:104BE000C4F20002904223D026E000BF40F600420B
:104BF000C4F20002904207D0604505D042F6004260
:104C0000C4F201029042DED14A6823F070031343DC
:104C10007045DADD40F60042C4F20002904207D04F
:104C2000604505D042F60042C4F20102904203D131
:104C3000CA6823F44073134323F080024B69D1F810
:104C400000E08C681A4360450260C462C0F828E046
:104C500005D042F60042C4F20102904201D1096936
:104C60000163012141610169C90708BF10BD0169E4
:104C700021F00101016110BD406A0021C185C1849C
:104C8000FEF7D2BA406A01684A6990F84130212B98
:104C90002DD112F080022AD00021C184016851E890
:104CA000031F026821F0C00142E80313DBB1016871
:104CB00051E8031F026821F0C00142E8031393B1D9
:104CC000016851E8031F026821F0C00142E80313A4
:104CD0004BB1016851E8031F026821F0C00142E8AE
:104CE0000313002BDAD1202180F8411001684969B3
:104CF00090F84220222A40F07D8011F0400179D0C6
:104D00000021C185016851E8031F026821F49071F8
:104D100042E80313BBB3016851E8031F026821F4A2
:104D2000907142E8031373B3016851E8031F0268EE
:104D300021F4907142E803132BB3016851E8031F7B
:104D4000026821F4907142E80313002BDAD11AE0D3
:104D5000016851E8051F026821F0010142E80513CE
:104D6000DBB1016851E8051F026821F0010142E84A
:104D7000051393B1016851E8051F026821F0010194
:104D800042E805134BB1016851E8051F026821F0A4
:104D9000010142E80513002BDAD1016B012924D16E
:104DA000016851E8031F026821F0100142E8031373
:104DB000DBB1016851E8031F026821F0100142E8ED
:104DC000031393B1016851E8031F026821F0100139
:104DD00042E803134BB1016851E8031F026821F058
:104DE000100142E80313002BDAD1202180F8421091
:104DF00000210163416C41F010014164FEF714BAD7
:104E00000168406A0968890600F19F800021C18518
:104E1000016851E8031F026821F4807142E803131E
:104E2000E3B1016851E8031F026821F4807142E890
:104E300003139BB1016851E8031F026821F48071DC
:104E400042E8031353B1016851E8031F026821F4DB
:104E5000807142E80313002BDAD100BF016851E8EA
:104E6000051F026821F0010142E80513BBB3016888
:104E700051E8051F026821F0010142E8051373B3F0
:104E8000016851E8051F026821F0010142E805139D
:104E90002BB3016851E8051F026821F0010142E8C7
:104EA0000513002BDAD11AE0016851E8051F0268EA
:104EB00021F0400142E80513DBB1016851E8051F0C
:104EC000026821F0400142E8051393B1016851E8FE
:104ED000051F026821F0400142E805134BB101684B
:104EE00051E8051F026821F0400142E80513002B3C
:104EF000DAD1202180F84210016B012925D100BFB1
:104F0000016851E8031F026821F0100142E8031311
:104F1000DBB1016851E8031F026821F0100142E88B
:104F2000031393B1016851E8031F026821F01001D7
:104F300042E803134BB1016851E8031F026821F0F6
:104F4000100142E80313002BDAD100214163016B09
:104F5000012918BFFEF77ABE818DFDF7F7BF00006B
:104F6000406A01214163016B012918BFFEF770BE41
:104F7000818D4908FDF7EABF0168406A0968890622
:104F800048BFFEF7C3BE0021C18400BF016851E8DD
:104F9000051F026821F0800142E8051383B3016810
:104FA00051E8051F026821F0800142E805133BB378
:104FB000016851E8051F026821F0800142E80513ED
:104FC000F3B1016851E8051F026821F0800142E851
:104FD0000513002BDAD113E0016851E8031F0268C2
:104FE00041F0400142E80313002B08BF70470168FD
:104FF00051E8031F026841F0400142E8031393B1F6
:10500000016851E8031F026841F0400142E80313C0
:105010004BB1016851E8031F026841F0400142E8CA
:105020000313002BD8D17047406AFEF771BE000011
:1050300081B090F84210222921D183680246B3F54D
:10504000805F09D152F8281F52F8183C002B63D01A
:1050500003685B680AE000BF52F8281F13B90369B0
:10506000002BF5D003685B6803F07F030B701168B9
:1050700001311160C18D01390A04C18502D001B02E
:10508000704700BF0168CA6822F02002CA60CA687F
:1050900022F48072CA604A6922F001024A6120212A
:1050A00080F8421000214163026B012A3CD1016368
:1050B000016851E8031F026821F0100142E8031360
:1050C000DBB1016851E8031F026821F0100142E8DA
:1050D000031393B1016851E8031F026821F0100126
:1050E00042E803134BB1016851E8031F026821F045
:1050F000100142E80313002BDAD101680A68D206D6
:1051000006D5002200920A68009249680091009931
:10511000818D01B0FDF71ABF026852686FF35F22FC
:1051200021F8022B8162A5E701B0FEF78FBD0000D8
:1051300010B582B040F29030C2F200000068016801
:10514000C90610D5002101910168019140680190C4
:10515000019840F29030C2F20000FDF757FFFFF7D0
:1051600011FAFFF72DFA40F29034C2F20004204603
:10517000FEF75CF8204602B0BDE81040FEF756B8D6
:1051800010B582B040F2D830C2F200000068016869
:10519000C9060ED500210191016801914068019076
:1051A000019840F2D830C2F20000FDF72FFFFFF760
:1051B00007FA40F2D834C2F200042046FEF736F86F
:1051C000204602B0BDE81040FEF730B840F2204063
:1051D000C2F20000FEF72AB8FEE7000090B0FCF72C
:1051E00097FA00240120CDE90B44CDE9094406904B
:1051F0000A904FF4E0104FF4803102250F9006A87A
:10520000CDE90714CDE90D51FCF734FC20B1EFF3E3
:10521000108072B6FEE700BF0F20CDE901054FF404
:105220008060CDE9040401A802210394FCF718FB77
:1052300020B1EFF3108072B6FEE700BFFEF79EFDCF
:10524000FEF76AFDFEF70EFEFEF700FFFEF730FFE9
:10525000FEF762FFFEF794FFFEF7C6FFFFF7E2F8E6
:10526000FEF7ECFFFFF7FCF8FFF718F9FFF77EF900
:105270006420FCF725F9FFF70FFAF9E702E008C808
:10528000121F08C1002AFAD170477047002001E0C0
:1052900001C1121F002AFBD170470000000000006E
:1052A00000000102030406070809000000000102D3
:1052B0000304010202030405060708090A0B0C0D8A
:1052C0000E0F10109801002000000000000C01409B
:1052D00010000000000C014020000000E001002050
:1052E0008A00000000000000000000000000000034
:1052F0009801002004000000000801401000000098
:105300000008014020000000280200208A00000060
:1053100000000000000000000000000098010020D4
:1053200008000000001401400004000000140140C7
:1053300000080000700200208A0000000000000049
:105340000000000000000000980100200C00000098
:1053500000080140040000000008014008000000AF
:10536000B8020020A90100000000000000000000B9
:1053700000000000985300080000002030000000EA
:105380007C520008C853000830000020A00900002B
:105390008C52000800000000010000001000000016
:1053A00000127A0000000000000000A09999C93F97
:1053B000000000A09999B93F000000A09999A93F69
:0853C000000000A09999A93F2B
:0400000508000131BD
:00000001FF
